:100000000C94E4000C940C010C940C010C940C0165
:100010000C940C010C940C010C940C010C940C012C
:100020000C940C010C94AE070C94C2040C9434058F
:100030000C940C010C940C010C940C010C940C010C
:100040000C940C010C940C010C940C010C940C01FC
:100050000C940C010C940C010C940C010C9464078E
:100060000C940C010C940C010C940C010C940C01DC
:100070000C940C010C940C010C940C010C940C01CC
:100080000C940C010C940C010C940C010C940C01BC
:100090000C940C010C940C010C940C010C940C01AC
:1000A0000C940C010C940C010C940C01F602F90256
:1000B000E802EC02F2021A031A031A03FD0201031A
:1000C00005030B030F031A031503000000002300B0
:1000D000260029002C002F000000000200090F005C
:1000E00000030401000C00000000000000000000FC
:1000F0000000000000000000000000250028002B88
:10010000002E00310000000000240027002A002DEE
:100110000030000404040404030405020202020483
:100120000302020202060606060606040402020292
:1001300004040408020110408040102040804080E8
:10014000080204018040201002011080102040406D
:1001500020080B0002020201000904000001020253
:1001600000000524001001052401010104240206F9
:100170000524060001070581031000400904010061
:10018000020A000000070502024000000705830282
:100190004000000403090412010002EF0201404183
:1001A00023368000010102030141726475696E6F9C
:1001B000204C4C430041726475696E6F204C656F32
:1001C0006E6172646F00F60711241FBECFEFDAE094
:1001D000DEBFCDBF22E0ACE4B1E001C01D92AD3086
:1001E000B207E1F711E0A0E0B1E0E2EBF5E102C017
:1001F00005900D92AC34B107D9F710E0C4EED0E011
:1002000004C02197FE010E94CC0AC33ED107C9F762
:100210000E941D080C94D70A0C940000FC018091E8
:100220007401811103C08FEF9FEF08959FB7F89479
:1002300082E08093E9002091F20030E0121613066C
:1002400014F421E030E02115310559F0289884E6B6
:10025000809373018091F10080838091F200882364
:1002600019F09FBFC90108958BE68093E800F9CF8C
:100270002FB7F89483E08093E9009091E800892FEC
:10028000807295FF04C09091F20080E4891B2FBF1B
:10029000089580916B0181110DC082E08093670108
:1002A00084E08093680110926A011092690181E0F4
:1002B00080936B0187E691E0089540916101509130
:1002C000620120915F013091600142175307B4F43D
:1002D0009091E8009570E1F39091E80092FD19C0CB
:1002E0008093F100809161019091620101968F737A
:1002F0009927892B19F48EEF8093E8008091610192
:10030000909162010196909362018093610181E076
:10031000089580E00895CF92DF92EF92FF920F93BD
:100320001F93CF93DF931F92CDB7DEB7182F062F01
:10033000E42E862F880F8E5F99830E945D0183E0F3
:100340000E945D01F12EC12E9981D92E8C2D8F191D
:10035000801798F4F601E7FE02C0849101C0808105
:100360000E945D01182F80E00E945D018123FFEF54
:10037000CF1ADF0A8111EACF01C081E00F90DF912F
:10038000CF911F910F91FF90EF90DF90CF90089544
:10039000DF92EF92FF920F931F93CF93DF93D82EAC
:1003A0008A017B01E40EF51EEB01CE15DF0571F02D
:1003B000D7FE03C0FE01849101C088810E945D01C7
:1003C00021968111F2CF8FEF9FEF01C0C801DF911D
:1003D000CF911F910F91FF90EF90DF9008950F93B1
:1003E0001F93CF93DF931F92CDB7DEB782E089834F
:1003F00042E450E061E571E080E80E94C8010E949B
:100400004901DC0112960D911C91139701151105FC
:1004100069F0D801ED91FC910280F381E02DBE01DD
:100420006F5F7F4FC801099597FF07C089810F90C3
:10043000DF91CF911F910F910895F80100851185EB
:10044000E5CF615030F02091F100FC01208301964E
:10045000F8CF289884E6809373010895CF92DF92B5
:10046000EF92FF920F931F93CF93DF936C017A016A
:100470008B01C0E0D0E0CE15DF0589F0D8016D9189
:100480008D01D601ED91FC910190F081E02DC60126
:100490000995892B11F47E0102C02196ECCFC7018A
:1004A000DF91CF911F910F91FF90EF90DF90CF9050
:1004B0000895CF93DF931F92CDB7DEB76983DC0138
:1004C000ED91FC910280F381E02D41E050E0BE010E
:1004D0006F5F7F4F09950F90DF91CF91089583E073
:1004E0008093E9008091F200882319F08AE38093D9
:1004F000E80008950E94380190E00895CF93DF93BB
:100500001F92CDB7DEB7FC018485958597FD05C0A8
:100510002FEF3FEF358724870BC0CE0101960E9455
:100520000E01019719F4898190E002C08FEF9FEFCF
:100530000F90DF91CF9108950F931F93CF93DF9387
:100540001F92CDB7DEB78C01FC018485958597FF9E
:100550000EC0CE0101960E940E01019719F4298167
:1005600030E002C02FEF3FEFF80135872487F80114
:10057000848595850F90DF91CF911F910F910895FC
:10058000FC018485958597FD0BC09FB7F89482E0A8
:100590008093E9008091F2009FBF90E0019608955A
:1005A0009FB7F89482E08093E9008091F2009FBFAA
:1005B00090E00895089580E090E0089590E0FC01B7
:1005C0003197EF30F105B0F5EA5AFF4F0C94CC0AA1
:1005D000809180008F7703C0809180008F7D809311
:1005E0008000089580918000877FF9CF84B58F7750
:1005F00002C084B58F7D84BD0895809190008F776F
:1006000007C0809190008F7D03C080919000877F0C
:100610008093900008958091C0008F7703C08091EF
:10062000C0008F7D8093C00008958091C200877FB5
:100630008093C20008951F93CF93DF93282F30E05B
:10064000F901E852FF4F8491F901EE5CFE4FD4911D
:10065000F901ED5EFE4FC491CC23C9F0162F811134
:100660000E94DE02EC2FF0E0EE0FFF1FE950FF4F7B
:10067000A591B4918FB7F894111105C09C91ED2FFD
:10068000E095E92302C0EC91ED2BEC938FBFDF9155
:10069000CF911F9108953FB7F894809151019091A7
:1006A0005201A0915301B091540126B5A89B05C0F9
:1006B0002F3F19F00196A11DB11D3FBFBA2FA92FE1
:1006C000982F8827820F911DA11DB11DBC01CD015E
:1006D00042E0660F771F881F991F4A95D1F708954A
:1006E0008F929F92AF92BF92CF92DF92EF92FF9242
:1006F0006B017C010E944B034B015C01C114D104CE
:10070000E104F104F1F00E944B03DC01CB018819F4
:100710009909AA09BB09883E9340A105B10570F368
:1007200021E0C21AD108E108F10888EE880E83E0C2
:10073000981EA11CB11CC114D104E104F10419F7E5
:10074000DDCFFF90EF90DF90CF90BF90AF909F9064
:100750008F9008958F929F92AF92BF92CF92DF9227
:10076000EF92FF920F931F93CF93DF935C016B0186
:100770007A0180910B01882309F45BC08091740198
:10078000882309F456C08091650180FF05C08091DF
:10079000E00082608093E000E70110E00AEF83E070
:1007A000882E9AE3992E2097D9F10E943801811161
:1007B0000AC0015009F43DC061E070E080E090E0C3
:1007C0000E947003F0CF282F30E0C217D3070CF43B
:1007D0008C2F4FB7F8948092E9009091E80095FF34
:1007E0001DC0282F30E0C21BD30BF601982F91506B
:1007F00020F081918093F100FACFC20ED31E112315
:1008000019F09092E80009C08091E80085FD06C0CB
:100810009092E80011E0209709F010E04FBFC3CF9D
:100820001111C3CF5D9884E6809366011E141F04E6
:1008300044F081E090E0F5019383828380E090E0D2
:1008400001C0C701DF91CF911F910F91FF90EF90F1
:10085000DF90CF90BF90AF909F908F9008952FB76B
:10086000F89460914D0170914E0180914F019091EB
:1008700050012FBF08958F929F92AF92BF92CF9257
:10088000DF92EF92FF926B017C010E942F044B01DB
:100890005C01C60ED71EE81EF91E0E942F046815C3
:1008A00079058A059B0528F0C616D706E806F906DD
:1008B000A0F7FF90EF90DF90CF90BF90AF909F9008
:1008C0008F9008950E94D20A6115710579F0FB019D
:1008D00001900020E9F73197AF01461B570BDC016F
:1008E000ED91FC910280F381E02D099480E090E08D
:1008F00008954F925F926F927F92EF92FF920F93C3
:100900001F93CF93DF93CDB7DEB7A1970FB6F894BF
:10091000DEBF0FBECDBF7C01FA01CB0119A2223090
:1009200008F42AE08E010F5D1F4F422E512C612CDE
:10093000712CBF01A30192010E94AA0AF901CA0108
:10094000015011096A3014F4605D01C0695CD8017E
:100950006C93232B242B252B61F7B801C7010E9430
:100960006404A1960FB6F894DEBF0FBECDBFDF9131
:10097000CF911F910F91FF90EF907F906F905F90BC
:100980004F9008951F920F920FB60F9211248F93DC
:100990009F938091E1009091E100937F9093E1001B
:1009A00083FF0FC01092E90091E09093EB0010924A
:1009B000EC0092E39093ED001092740198E0909314
:1009C000F00082FF20C093E09093E9009091F20044
:1009D000992319F09AE39093E80090916601992386
:1009E00039F090916601915090936601992389F1B5
:1009F00090917301992339F09091730191509093E4
:100A00007301992341F184FF10C08091E2008E7E32
:100A100081608093E2008091E1008F7E8093E1000D
:100A2000809165018E7E806111C080FF16C080912B
:100A3000E2008E7E80618093E2008091E1008E7EF4
:100A40008093E100809165018E7E816080936501D5
:100A500004C05D9ACDCF289AD6CF9F918F910F90E9
:100A60000FBE0F901F9018951F920F920FB60F9206
:100A70001124CF92DF92EF92FF920F931F932F9347
:100A80003F934F935F936F937F938F939F93AF9316
:100A9000BF93EF93FF93CF93DF93CDB7DEB76C9700
:100AA000DEBFCDBF1092E9008091E80083FFEDC169
:100AB00068E0CE0145960E94210282EF8093E80013
:100AC0008D8987FF05C09091E80090FFFCCF03C09F
:100AD0009EEF9093E800982F907609F0C6C09E890B
:100AE0002F89188D91110CC0803829F480916401F0
:100AF0008093F10002C01092F1001092F10048C101
:100B0000422F50E0512B913051F4811141C14130BD
:100B1000510509F03DC1809164018D7F0BC0933078
:100B200061F4811135C14130510509F031C1809125
:100B300064018260809364012BC1953041F48091FF
:100B4000E80080FFFCCF20682093E30021C19630AD
:100B500009F05FC0EB8CFC8C1092E90010926201EE
:100B600010926101123091F51092600110925F01B4
:100B70000E94EF0199E0BE016F5F7F4FDB01E92F1B
:100B80001D92EA95E9F799831A8391E09E8390EA92
:100B900098879AEF99872091610130916201275FD0
:100BA0003F4F3C832B838D831092E90010926201AA
:100BB00010926101F0926001E0925F0149E050E023
:100BC00080E00E94C8010E94EF01E2C0F092600143
:100BD000E0925F010E944901DC011296ED90FC90C9
:100BE0001397E114F10409F4C0C0D701ED91FC9111
:100BF0000480F581E02DBE016B5E7F4FC701099532
:100C0000009719F00CF0C4C0C7C0F701E084F1846C
:100C1000E8CF973009F4C0C0983021F481E0809388
:100C2000F100B6C0993009F0B3C0837009F0B4C0C8
:100C3000EDE0F1E081E021E036E39081992361F07D
:100C40008093E9002093EB0091919093EC00309316
:100C5000ED008F5F873089F78EE78093EA0010926E
:100C6000EA008F898093740193C08B8D9C8D1092C4
:100C7000E9001092620110926101909360018093EB
:100C80005F01898D811156C08E899D89913A59F4F1
:100C9000813209F081C047E050E064E071E080E01B
:100CA0000E94C80175C0913209F076C0833289F480
:100CB000888D90E0982F88272F89822BA0E0B0E0C4
:100CC0008093000190930101A0930201B09303016E
:100CD0005FC0803269F48091E80082FFFCCF67E05A
:100CE00084E091E00E9421028BEF8093E80006C02F
:100CF000823209F04DC08F8980930B01809163018E
:100D0000882319F0EEEFFAE002C0E0E0F8E080910D
:100D1000040190910501A0910601B0910701803B6B
:100D20009440A105B10509F07BC080910B0180FFC3
:100D300093C076C00E944901DC0112960D911C916E
:100D400013970115110541F1D801ED91FC91019026
:100D5000F081E02DBE016B5E7F4FC80109958111C6
:100D600017C0F80100851185ECCF113009F44EC091
:100D7000133091F48F89882309F445C0823081F4BF
:100D800040E860E185EB91E00E948B01882321F02F
:100D90008EEF8093E80079C081E28093EB0075C00C
:100DA000813029F440E86BE089EA91E0EDCF8330AF
:100DB00099F70E944901DC011296ED90FC9013977F
:100DC0008E010F5F1F4F6801E114F10479F0D70124
:100DD000ED91FC910680F781E02DB801C7010995DE
:100DE000080F111DF701E084F184EECFD8011C92A9
:100DF000F60101900020E9F73197BF016C197D09D8
:100E000040E0C601C1CF63E971E002C067E971E06B
:100E10006115710509F2FB01449150E080E840CF73
:100E20000FB6F894A8958091600088618093600067
:100E3000109260000FBEA895EE3F2AE0F20739F04D
:100E40008091FE0A9091FF0A91838083A1CF109236
:100E5000FF0A1092FE0A9CCFEE3F8AE0F80731F0BD
:100E6000808191819093FF0A8093FE0A87E797E73C
:100E7000918380839BE088E10FB6F894A8958093D6
:100E800060000FBE9093600083CF6C960FB6F8940D
:100E9000DEBF0FBECDBFDF91CF91FF91EF91BF912C
:100EA000AF919F918F917F916F915F914F913F9102
:100EB0002F911F910F91FF90EF90DF90CF900F90A7
:100EC0000FBE0F901F9018951F920F920FB60F92A2
:100ED00011242F933F938F939F93AF93BF93809150
:100EE0004D0190914E01A0914F01B0915001309170
:100EF0004C0123E0230F2D3720F40196A11DB11DD5
:100F000005C026E8230F0296A11DB11D20934C01B8
:100F100080934D0190934E01A0934F01B0935001E7
:100F20008091510190915201A0915301B0915401CF
:100F30000196A11DB11D8093510190935201A09380
:100F40005301B0935401BF91AF919F918F913F9105
:100F50002F910F900FBE0F901F9018951F920F9218
:100F60000FB60F9211242F933F934F935F936F937C
:100F70007F938F939F93AF93BF93CF93DF93EF9321
:100F8000FF93E7EEF0E08491E1E4F1E0D491E2E256
:100F9000F1E0C491CC23B9F081110E94DE02EC2F64
:100FA000F0E0EE0FFF1FE653FF4FA591B491EC91D7
:100FB000ED2349F08091550190915601019690934F
:100FC000560180935501FF91EF91DF91CF91BF9131
:100FD000AF919F918F917F916F915F914F913F91D1
:100FE0002F910F900FBE0F901F901895E5E7F1E03D
:100FF0001382128288EE93E0A0E0B0E084839583B0
:10100000A683B78387E191E0918380838FEF9FEF81
:1010100095878487E5ECF1E01682178210861186A9
:10102000128613861486158616861786108A118AEC
:10103000128A138A148A158A0895789484B5826076
:1010400084BD84B5816084BD85B5826085BD85B56C
:10105000816085BD80916E00816080936E001092EA
:101060008100809181008260809381008091810065
:1010700081608093810080918000816080938000F6
:1010800080919100826080939100809191008160B5
:101090008093910080919000816080939000809176
:1010A000C10084608093C1008091C1008260809300
:1010B000C1008091C10081608093C1008091C30014
:1010C00081608093C3008091C00082608093C000E3
:1010D0008091C20081608093C20080917A00846018
:1010E00080937A0080917A00826080937A00809168
:1010F0007A00816080937A0080917A008068809382
:101100007A0010927401109264011092650180912E
:10111000D70081608093D70080EA8093D80089B59A
:10112000806189BD89B5826089BD09B400FEFDCFAB
:1011300061E070E080E090E00E9470038091D80050
:101140008F7C80618093D8008091E000807F8093C5
:10115000E0008091E1008E7E8093E1008DE080933D
:10116000E200559A209AEEEFFFE7859194918B3F2C
:101170009C4D19F481E08093630110920902109252
:101180000A0210920B0210920C021092C7011092E8
:10119000C8011092C9011092CA0168EB7BE080E09F
:1011A00090E00E943B0485E791E0909308028093D1
:1011B0000702CBE1D0E0F0900B016AE070E080E044
:1011C00090E00E947003F11009C0219739F064E6A5
:1011D00070E080E090E00E947003EDCFE0910702A4
:1011E000F0910802CFEFDFEFD587C4870E942F046C
:1011F0006093C7017093C8018093C9019093CA019D
:1012000065E271E080910702909108020E946404F7
:101210006AE070E080E090E00E943B0481E080930F
:10122000DB01D0938201C0938101E1E4F1E02491DC
:10123000E2E2F1E084918823C1F090E0880F991FE9
:10124000FC01EB5FFE4FC591D491FC01E950FF4FCB
:10125000A591B4919FB7F8943881822F809583230C
:101260008883EC91E22BEC939FBF61E08FE00E94BA
:101270001B03ECE3F1E02491EDE1F1E0849188239C
:1012800099F090E0880F991FFC01EB5FFE4FA5914C
:10129000B491FC01E950FF4F859194918FB7F89478
:1012A000EC91E22BEC938FBF60E08AE00E941B037D
:1012B00080916B00816080936B00809168008160F9
:1012C00080936800C0E0D0E084EF882E9924939446
:1012D000A12CB12C0E942F04672B682B692B41F4A1
:1012E0000E942F04623071058105910508F40BC13D
:1012F0000E942F0460935B0170935C0180935D01F9
:1013000090935E01C0905701D0905801E090590130
:10131000F0905A016C157D058E059F0540F4609391
:101320005701709358018093590190935A01C090CE
:101330005701D0905801E0905901F0905A019B015B
:10134000AC012C193D094E095F0969017A013AEF98
:10135000C316D104E104F10408F4D5C06093570129
:10136000709358018093590190935A018092D30150
:101370009092D401A092D501B092D6011092D701DB
:101380001092D8011092D9011092DA018091CB010C
:101390009091CC01A091CD01B091CE018093CF016D
:1013A0009093D001A093D101B093D2010E942F0459
:1013B0006093CB017093CC018093CD019093CE01CB
:1013C0000E942F046093C7017093C8018093C901E4
:1013D0009093CA010E942F046B017C0167E371E0C6
:1013E00080910702909108020E9464042AE041E083
:1013F00050E060E070E080910702909108020E9446
:1014000079046EE371E080910702909108020E94D6
:1014100064042AE0B701A6018091070290910802B6
:101420000E94790460E471E08091070290910802C3
:101430000E9464048091CB019091CC01A091CD01D8
:10144000B091CE01B701A601481B590B6A0B7B0B6B
:101450002AE080910702909108020E94790460E4DA
:1014600071E080910702909108020E94640440910B
:10147000CB015091CC016091CD017091CE01809152
:10148000CF019091D001A091D101B091D201481B20
:10149000590B6A0B7B0B2AE080910702909108029E
:1014A0000E94790462E471E0809107029091080241
:1014B0000E9464040E942F04AB01BC012AE08091C9
:1014C0000702909108020E947904E0900702F090D0
:1014D000080264E471E0C7010E94640464E371E0FF
:1014E000C7010E94640462E070E080E090E00E9426
:1014F0003B040E942F046093CB017093CC01809336
:10150000CD019093CE01109256011092550168EED4
:1015100073E080E090E00E9470034091550150918B
:10152000560160E070E02AE085E791E00E947904CE
:1015300064E371E085E791E00E94640468EE73E083
:1015400080E090E00E947003209709F4C3CE0E94CF
:101550000000C0CEA1E21A2EAA1BBB1BFD010DC0CC
:10156000AA1FBB1FEE1FFF1FA217B307E407F50753
:1015700020F0A21BB30BE40BF50B661F771F881F2F
:10158000991F1A9469F760957095809590959B01C5
:10159000AC01BD01CF010895EE0FFF1F0590F4913E
:1015A000E02D099481E090E0F8940C94D70AF89427
:0215B000FFCF6B
:1015B200FFFFFFFF00E100000000000000C180818A
:1015C200000000000000005902AA037A026F02C064
:1015D200027E029C02564D4450565F317C315F566A
:1015E2004D4450560D0A00564D4450455F003A3264
:0C15F2003A007C005F564D44504500005C
:00000001FF
