:100000000C94E4000C940C010C940C010C940C0165
:100010000C940C010C940C010C940C010C940C012C
:100020000C940C010C940C010C94CB050C943D0623
:100030000C940C010C940C010C940C010C940C010C
:100040000C940C010C940C010C940C010C940C01FC
:100050000C940C010C940C010C940C010C946D028A
:100060000C940C010C940C010C940C010C940C01DC
:100070000C940C010C940C010C940C010C940C01CC
:100080000C940C010C940C010C940C010C940C01BC
:100090000C940C010C940C010C940C010C940C01AC
:1000A0000C940C010C94B7020C940C012B012E0142
:1000B0001D01210127014F014F014F01320136017E
:1000C0003A01400144014F014A01000000002300B1
:1000D000260029002C002F000000000200090F005C
:1000E00000030401000C00000000000000000000FC
:1000F0000000000000000000000000250028002B88
:10010000002E00310000000000240027002A002DEE
:100110000030000404040404030405020202020483
:100120000302020202060606060606040402020292
:1001300004040408020110408040102040804080E8
:10014000080204018040201002011080102040406D
:1001500020080B0002020201000904000001020253
:1001600000000524001001052401010104240206F9
:100170000524060001070581031000400904010061
:10018000020A000000070502024000000705830282
:100190004000000403090412010002EF0201404183
:1001A00023368000010102030141726475696E6F9C
:1001B000204C4C430041726475696E6F204C656F32
:1001C0006E6172646F001C0C11241FBECFEFDAE069
:1001D000DEBFCDBF11E0A0E0B1E0E8E7FBE102C087
:1001E00005900D92AE33B107D9F722E0AEE3B1E04E
:1001F00001C01D92A839B207E1F710E0C4EED0E0CB
:1002000004C02197FE010E94950DC33ED107C9F796
:100210000E946D080C94BA0D0C940000019711F423
:1002200010923E01089590E0FC013197EF30F10506
:10023000B0F5EA5AFF4F0C94950D809180008F77AE
:1002400003C0809180008F7D80938000089580910D
:100250008000877FF9CF84B58F7702C084B58F7D0A
:1002600084BD0895809190008F7707C080919000A1
:100270008F7D03C080919000877F809390000895C8
:100280008091C0008F7703C08091C0008F7D8093E4
:10029000C00008958091C200877F8093C2000895B6
:1002A0001F93CF93DF93282F30E0F901E852FF4FDF
:1002B0008491F901EE5CFE4FD491F901ED5EFE4FA1
:1002C000C491CC23C9F0162F81110E941301EC2F89
:1002D000F0E0EE0FFF1FE950FF4FA591B4918FB7EB
:1002E000F894111105C09C91ED2FE095E92302C00F
:1002F000EC91ED2BEC938FBFDF91CF911F9108957F
:100300002FB7F894609140017091410180914201B2
:10031000909143012FBF089580934801E82FF0E0AA
:10032000E35FFE4F808190E090938B0080938A0082
:1003300081E080934D010E94800160934901709398
:100340004A0180934B0190934C010895E09148013C
:10035000F0E0E35FFE4F808190E090938B0080930C
:100360008A0080E590E09093870080938600E0E823
:10037000F0E080818062808380818F7E8083A1E82D
:10038000B0E08C9180618C938C9188608C9380819B
:100390008260808380818E7F80838C91887F826061
:1003A0008C930895CF938230910509F183309105A4
:1003B00031F1019781F580913E0181112CC0C1E09E
:1003C000C0933E0180910001882361F080918100FB
:1003D000887F8093810060E08AE00E945001109243
:1003E000000119C00E94A601C093000114C08091B1
:1003F0000001882381F0809148018F5F07C08091C0
:100400000001882341F0809148018150883118F41F
:10041000CF910C948C01CF9108954091500150914F
:10042000510120914E0130914F0142175307B4F40E
:100430009091E8009570E1F39091E80092FD19C069
:100440008093F100809150019091510101968F733A
:100450009927892B19F48EEF8093E8008091500141
:10046000909151010196909351018093500181E048
:10047000089580E00895615030F02091F100FC0172
:1004800020830196F8CF289884E68093550108953B
:100490003FB7F8948091440190914501A0914601A5
:1004A000B091470126B5A89B05C02F3F19F00196D2
:1004B000A11DB11D3FBFBA2FA92F982F8827820FEA
:1004C000911DA11DB11DBC01CD0142E0660F771F3A
:1004D000881F991F4A95D1F708951F920F920FB662
:1004E0000F9211242F933F938F939F93AF93BF93BA
:1004F0008091400190914101A0914201B09143014E
:1005000030913F0123E0230F2D3720F40196A11DE8
:10051000B11D05C026E8230F0296A11DB11D209331
:100520003F018093400190934101A0934201B09319
:1005300043018091440190914501A0914601B09101
:1005400047010196A11DB11D80934401909345017F
:10055000A0934601B0934701BF91AF919F918F91B6
:100560003F912F910F900FBE0F901F9018951F92E3
:100570000F920FB60F9211242F933F934F935F93D7
:100580006F937F938F939F93AF93BF93CF93DF939B
:10059000EF93FF932091580130E0F901E852FF4FAB
:1005A0008491F901EE5CFE4FD491F901ED5EFE4FAE
:1005B000C491CC23A1F081110E941301EC2FF0E033
:1005C000EE0FFF1FE653FF4FA591B491EC91ED2381
:1005D00031E020E009F430E0832F922F02C080E068
:1005E00090E020915C0130915D012F5F3F4F30938F
:1005F0005D0120935C0120915B01253618F026E017
:1006000020935701209157012430D9F128F422304A
:1006100069F02330D9F060C0253009F453C026308A
:1006200009F05AC021E02093280253C0009709F036
:1006300053C020915C0130915D012436310508F4EE
:1006400043C01092280210925B011DC081309105B9
:1006500009F042C0E0915B0121E02E0F20935B0185
:10066000F0E020915C0130915D01EE0FFF1FE95A2F
:10067000FE4F3087278310925D0110925C0124E0C9
:1006800029C00097B9F4E0915B0121E02E0F20937F
:100690005B01F0E020915C0130915D01EE0FFF1FE6
:1006A000E95AFE4F3087278310925D0110925C015A
:1006B00023E010C020915C0130915D0125363105A9
:1006C00058F007C0009741F410925D0110925C0150
:1006D00003C025E02093570120915A012223B9F04D
:1006E000892B51F480915901882321F0809159017F
:1006F00061E009C02D9A0BC080915901882331F027
:100700008091590160E00E94500101C02D98FF9135
:10071000EF91DF91CF91BF91AF919F918F917F9199
:100720006F915F914F913F912F910F900FBE0F905E
:100730001F901895FC0180915601811103C08FEF25
:100740009FEF08959FB7F89482E08093E90020918D
:10075000F20030E01216130614F421E030E0211507
:10076000310559F0289884E6809355018091F10075
:1007700080838091F200882319F09FBFC9010895FA
:100780008BE68093E800F9CF2FB7F89483E080934D
:10079000E9009091E800892F807295FF04C0909144
:1007A000F20080E4891B2FBF0895CF92DF92EF9271
:1007B000FF920F931F93CF93DF936C017A018B010C
:1007C000C0E0D0E0CE15DF0589F0D8016D918D0134
:1007D000D601ED91FC910190F081E02DC6010995C3
:1007E000892B11F47E0102C02196ECCFC701DF9165
:1007F000CF911F910F91FF90EF90DF90CF900895D0
:100800008091400281110DC082E080933C0284E01F
:1008100080933D0210923F0210923E0281E080934D
:1008200040028CE392E00895CF93DF931F92CDB7FF
:10083000DEB76983DC01ED91FC910280F381E02D4C
:1008400041E050E0BE016F5F7F4F09950F90DF914F
:10085000CF91089583E08093E9008091F20088238E
:1008600019F08AE38093E80008950E94C40390E0A1
:100870000895CF93DF931F92CDB7DEB7FC01848537
:10088000958597FD05C02FEF3FEF358724870BC077
:10089000CE0101960E949A03019719F4898190E094
:1008A00002C08FEF9FEF0F90DF91CF9108950F93CC
:1008B0001F93CF93DF931F92CDB7DEB78C01FC015E
:1008C0008485958597FF0EC0CE0101960E949A03FC
:1008D000019719F4298130E002C02FEF3FEFF801B2
:1008E00035872487F801848595850F90DF91CF9116
:1008F0001F910F910895FC018485958597FD0BC08C
:100900009FB7F89482E08093E9008091F2009FBF46
:1009100090E0019608959FB7F89482E08093E900F3
:100920008091F2009FBF90E00895089580E090E0EC
:1009300008950E94B50DCF92DF92EF92FF920F9330
:100940001F93CF93DF931F92CDB7DEB7182F062FDB
:10095000E42E862F880F8E5F99830E940D0283E01C
:100960000E940D02F12EC12E9981D92E8C2D8F1946
:10097000801798F4F601E7FE02C0849101C08081DF
:100980000E940D02182F80E00E940D028123FFEFCC
:10099000CF1ADF0A8111EACF01C081E00F90DF9109
:1009A000CF911F910F91FF90EF90DF90CF9008951E
:1009B000DF92EF92FF920F931F93CF93DF93D82E86
:1009C0008A017B01E40EF51EEB01CE15DF0571F007
:1009D000D7FE03C0FE01849101C088810E940D02F0
:1009E00021968111F2CF8FEF9FEF01C0C801DF91F7
:1009F000CF911F910F91FF90EF90DF9008950F938B
:100A00001F93CF93DF931F92CDB7DEB782E0898328
:100A100042E450E061E571E080E80E94D8040E9461
:100A20000004DC0112960D911C911397011511051C
:100A300069F0D801ED91FC910280F381E02DBE01B7
:100A40006F5F7F4FC801099597FF07C089810F909D
:100A5000DF91CF911F910F910895F80100851185C5
:100A6000E5CFCF92DF92EF92FF920E9448026B0196
:100A70007C010E944802DC01CB018C199D09AE0962
:100A8000BF09883E9340A105B10598F3FF90EF9010
:100A9000DF90CF9008958F929F92AF92BF92CF92A6
:100AA000DF92EF92FF920F931F93CF93DF936C012E
:100AB0005B017A0180910C01882309F456C0809172
:100AC0005601882309F451C08091540180FF05C06C
:100AD0008091E00082608093E000E70110E00AEF7F
:100AE00083E0882E9AE3992E2097B1F10E94C403E7
:100AF000811105C00150C9F10E943105F5CF282FA1
:100B000030E0C217D3070CF48C2F4FB7F8948092C3
:100B1000E9009091E80095FF1DC0282F30E0C21B2E
:100B2000D30BF501982F915020F081918093F10023
:100B3000FACFA20EB31E112319F09092E80009C05B
:100B40008091E80085FD06C09092E80011E02097B2
:100B500009F010E04FBFC8CF1111C8CF5D9884E6EF
:100B600080933B021E141F0444F081E090E0F601E4
:100B70009383828380E090E001C0C701DF91CF9131
:100B80001F910F91FF90EF90DF90CF90BF90AF90AB
:100B90009F908F9008951F920F920FB60F9211247D
:100BA0008F939F938091E1009091E100937F9093C8
:100BB000E10083FF0FC01092E90091E09093EB00F9
:100BC0001092EC0092E39093ED001092560198E0A1
:100BD0009093F00082FF20C093E09093E900909101
:100BE000F200992319F09AE39093E80090913B0268
:100BF000992339F090913B02915090933B029923B5
:100C000089F190915501992339F0909155019150B6
:100C100090935501992341F184FF10C08091E20027
:100C20008E7E81608093E2008091E1008F7E8093D0
:100C3000E100809154018E7E806111C080FF16C05A
:100C40008091E2008E7E80618093E2008091E100DD
:100C50008E7E8093E100809154018E7E816080932E
:100C6000540104C05D9ACDCF289AD6CF9F918F9121
:100C70000F900FBE0F901F9018951F920F920FB6F6
:100C80000F921124CF92DF92EF92FF920F931F9356
:100C90002F933F934F935F936F937F938F939F9384
:100CA000AF93BF93EF93FF93CF93DF93CDB7DEB7AF
:100CB0006C97DEBFCDBF1092E9008091E80083FF02
:100CC000EDC168E0CE0145960E943B0282EF809321
:100CD000E8008D8987FF05C09091E80090FFFCCF68
:100CE00003C09EEF9093E800982F907609F0C6C05D
:100CF0009E892F89188D91110CC0803829F480911C
:100D000053018093F10002C01092F1001092F100A3
:100D100048C1422F50E0512B913051F4811141C113
:100D20004130510509F03DC1809153018D7F0BC0C9
:100D3000933061F4811135C14130510509F031C161
:100D4000809153018260809353012BC1953041F40F
:100D50008091E80080FFFCCF20682093E30021C150
:100D6000963009F05FC0EB8CFC8C1092E900109279
:100D7000510110925001123091F510924F011092D2
:100D80004E010E94FF0499E0BE016F5F7F4FDB01BF
:100D9000E92F1D92EA95E9F799831A8391E09E83E2
:100DA00090EA98879AEF99872091500130915101EC
:100DB000275F3F4F3C832B838D831092E900109275
:100DC000510110925001F0924F01E0924E0149E022
:100DD00050E080E00E94D8040E94FF04E2C0F0923C
:100DE0004F01E0924E010E940004DC011296ED904A
:100DF000FC901397E114F10409F4C0C0D701ED9100
:100E0000FC910480F581E02DBE016B5E7F4FC70130
:100E10000995009719F00CF0C4C0C7C0F701E08431
:100E2000F184E8CF973009F4C0C0983021F481E014
:100E30008093F100B6C0993009F0B3C0837009F017
:100E4000B4C0E6E2F1E081E021E036E3908199234D
:100E500061F08093E9002093EB0091919093EC0076
:100E60003093ED008F5F873089F78EE78093EA003B
:100E70001092EA008F898093560193C08B8D9C8DD0
:100E80001092E900109251011092500190934F017D
:100E900080934E01898D811156C08E899D89913A2A
:100EA00059F4813209F081C047E050E065E071E01B
:100EB00080E00E94D80475C0913209F076C0833278
:100EC00089F4888D90E0982F88272F89822BA0E0C5
:100ED000B0E08093010190930201A0930301B093CD
:100EE00004015FC0803269F48091E80082FFFCCF8A
:100EF00067E085E091E00E943B028BEF8093E80081
:100F000006C0823209F04DC08F8980930C01809118
:100F10005201882319F0EEEFFAE002C0E0E0F8E0B9
:100F20008091050190910601A0910701B0910801FF
:100F3000803B9440A105B10509F07BC080910C0174
:100F400080FF93C076C00E940004DC0112960D91D0
:100F50001C9113970115110541F1D801ED91FC91F8
:100F60000190F081E02DBE016B5E7F4FC8010995B5
:100F7000811117C0F80100851185ECCF113009F4FB
:100F80004EC0133091F48F89882309F445C0823014
:100F900081F440E860E185EB91E00E949B048823A6
:100FA00021F08EEF8093E80079C081E28093EB001E
:100FB00075C0813029F440E86BE089EA91E0EDCF1B
:100FC000833099F70E940004DC011296ED90FC90AA
:100FD00013978E010F5F1F4F6801E114F10479F040
:100FE000D701ED91FC910680F781E02DB801C70192
:100FF0000995080F111DF701E084F184EECFD801A7
:101000001C92F60101900020E9F73197BF016C199D
:101010007D0940E0C601C1CF63E971E002C067E924
:1010200071E06115710509F2FB01449150E080E81F
:1010300040CF0FB6F894A8958091600088618093A6
:101040006000109260000FBEA895EE3F2AE0F20704
:1010500039F08091FE0A9091FF0A91838083A1CF9D
:101060001092FF0A1092FE0A9CCFEE3F8AE0F8072A
:1010700031F0808191819093FF0A8093FE0A87E787
:1010800097E7918380839BE088E10FB6F894A89559
:10109000809360000FBE9093600083CF6C960FB674
:1010A000F894DEBF0FBECDBFDF91CF91FF91EF91DE
:1010B000BF91AF919F918F917F916F915F914F9170
:1010C0003F912F911F910F91FF90EF90DF90CF9064
:1010D0000F900FBE0F901F901895CF93DF9300D005
:1010E0001F92CDB7DEB7789484B5826084BD84B595
:1010F000816084BD85B5826085BD85B5816085BD13
:1011000080916E00816080936E00109281008091CA
:101110008100826080938100809181008160809352
:101120008100809180008160809380008091910097
:101130008260809391008091910081608093910002
:10114000809190008160809390008091C1008460C4
:101150008093C1008091C10082608093C100809122
:10116000C10081608093C1008091C3008160809341
:10117000C3008091C00082608093C0008091C20053
:1011800081608093C20080917A00846080937A00AD
:1011900080917A00826080937A0080917A008160E9
:1011A00080937A0080917A00806880937A00109210
:1011B000560110925301109254018091D700816022
:1011C0008093D70080EA8093D80089B5806189BD7B
:1011D00089B5826089BD09B400FEFDCF0E9431054A
:1011E0008091D8008F7C80618093D8008091E0004E
:1011F000807F8093E0008091E1008E7E8093E1000B
:101200008DE08093E200559A209AEEEFFFE78591FA
:1012100094918B3F9C4D19F481E080935201289A60
:101220005D9AECE3F1E02491EDE1F1E08491882313
:1012300099F090E0880F991FFC01EB5FFE4FA5919C
:10124000B491FC01E950FF4F859194918FB7F894C8
:10125000EC91E22BEC938FBF61E08AE00E94500199
:101260000E94A60180E090E00E944B0C883110F4AF
:101270000E948C0182ED91E090932B0280932A02D0
:101280008EE091E090932D0280932C02F8941092BE
:10129000C00081E08093C1001092C2001092C30090
:1012A0001092C40083E08093BF0080E28093D1005D
:1012B0001092BF001092BF001092BE0084E0809395
:1012C0007200789482E08093570110925B018091C4
:1012D000580190E0FC01EE5CFE4F2491FC01ED5EB4
:1012E000FE4F84918823C9F090E0880F991FFC017C
:1012F000EB5FFE4F45915491FC01E950FF4FA591E2
:10130000B4919FB7F894FA0180812095822380835D
:101310008C91E22FE823EC939FBF80914D018823AD
:1013200029F10E9480010091490110914A01209108
:101330004B0130914C01DC01CB01801B910BA20BC6
:10134000B30B893B9B40A105B10580F0609148013A
:1013500080E090E069830E944B0C6981681721F05E
:1013600080E090E00E94530C10924D010E94800199
:1013700000912E0210912F02209130023091310203
:10138000DC01CB01801B910BA20BB30B893C9105B7
:10139000A105B10588F08091390290913A02009739
:1013A00059F010923A0210923902E0912C02F09119
:1013B0002D02309709F0099520905B018091280259
:1013C00080915701853009F019C180916001909199
:1013D00061018C549109C59788F480915B01843038
:1013E00041F480916201909163018097479708F4DE
:1013F0000CC180915B01843408F0A4C0312C28E139
:101400002216310491F5809160019091610142971B
:1014100088F18091600190916101499758F520E031
:1014200030E0C12CD12C7601F901EE59FE4F8081BC
:101430009181089708F403C1808191810F9708F08A
:10144000FEC052E0CC0CDD1CEE1CFF1C5A95D1F7FF
:10145000F901EC59FE4F80819181099758F0808104
:101460009181409708F423C105C086E02816310415
:101470000CF4BFC0E4E6F1E0FB83EA8303E010E094
:10148000B5ECCB2EBDE9DB2EBCE1EB2EB1E8FB2E9B
:10149000021513050CF053C0EA81FB816081718154
:1014A0003497A080B18080E090E00E94660C2B0110
:1014B0003C01B50180E090E00E94660C4B015C01AC
:1014C0002DEC3CEC4CE45FE30E94C70C9B01AC01AB
:1014D000C301B2010E94610C87FD17C02DEC3CECEA
:1014E0004CE45FE3C301B2010E94C70C9B01AC0155
:1014F000C501B4010E94610CE82F880FFF0BEE2795
:10150000FF0FEE1FFF27319602C0E0E0F0E0A701D9
:10151000960163E971E080E091E00E94850D6F0122
:10152000FF0FEE08FF08C626D726E826F9260F5F2C
:101530001F4F8A819B8102969B838A83A9CF8FEF5D
:101540009FEF30C0809162019091630189549109AD
:10155000C39708F053CF80E090E0C12CD12C7601E6
:10156000FC01EC59FE4F208131812950310929308D
:10157000310508F043CFFC01EA59FE4F208131814B
:10158000265131092131310508F04CC0CC0CDD1C4D
:10159000EE1CFF1C6894C0F804968038910501F792
:1015A00087E090E020913302309134028217930754
:1015B00009F023C140913502509136026091370203
:1015C00070913802C416D506E606F70609F015C173
:1015D00020913202109232022F3F09F071C00E9416
:1015E000800160932E0270932F02809330029093BB
:1015F000310282E08093570110925B01E0E0F0E05D
:10160000309709F48ACE099588CE80916401909133
:1016100065010997099708F0ECCECC24CA94DC2C1C
:101620007601BECF20813181265031092730310526
:1016300008F0E4CECC0CDD1CEE1CFF1CADCF80818D
:1016400091810E9770F080819181459750F442E02E
:10165000CC0CDD1CEE1CFF1C4A95D1F76894C0F839
:10166000F7CE80819181449770F0808191814B9772
:1016700050F492E0CC0CDD1CEE1CFF1C9A95D1F7C7
:101680006894C1F8E5CE808191814A9708F4F2CE42
:1016900080819181819708F0EDCE82E0CC0CDD1C39
:1016A000EE1CFF1C8A95D1F7F3E0CF2AD1CE2C5F38
:1016B0003F4F2C32310509F0B7CE82E190E072CF76
:1016C0008730910521F0429709F458C088CF97EBF5
:1016D000C91698E4D90690EEE906F90609F48AC01D
:1016E00038F5F7EFCF16F8E0DF06F0EEEF06FF066D
:1016F00009F490C050F489EFC81686E0D80680EE51
:10170000E806F80609F476C06ACF9FEBC91690E4A4
:10171000D90690EEE906F90609F47FC0E9EBCE168A
:10172000E6E4DE06E0EEEE06FE0609F463C057CFFF
:10173000F9E5CF16F6EADF06F0EEEF06FF0609F44C
:1017400069C050F489E7C81686E8D80680EEE80636
:10175000F80609F45FC043CF9FE2C91690EDD906A1
:1017600090EEE906F90609F455C0EFE1CE16E0EE79
:10177000DE06EE06FE0609F032CF3CC0F5EBCF16D2
:10178000F0E6DF06F8E0EF06F10409F443C0C8F420
:101790008BE5C81680E6D80688E0E806F10451F12A
:1017A00098E6C91690E6D90698E0E906F10491F1A9
:1017B000EFECCE16ECECDE06E3E0EE06F10469F1A8
:1017C0000ECFF0EECF16F0E6DF06F8E0EF06F104FC
:1017D00089F021EFC21620E6D20628E0E206F104E5
:1017E000C9F082ECC81680E6D80688E0E806F10465
:1017F00009F0F5CE82E090E012C09093340280931D
:101800003302C0923502D0923602E0923702F09253
:101810003802E5CE83E090E002C081E090E0909352
:101820003A0280933902E0912A02F0912B0230971C
:1018300009F4D5CE0995D3CEE8E4F2E01382128202
:1018400088EE93E0A0E0B0E084839583A683B7831D
:1018500080E391E0918380838FEF9FEF958784876A
:10186000559A209AE7E5F1E023E021831382E9E22B
:10187000F2E012821182148213821582168217827C
:10188000108611869387828714861586168617869A
:10189000118A108A0895F999FECF92BD81BDF89AF8
:1018A000992780B50895262FF999FECF1FBA92BDCA
:1018B00081BD20BD0FB6F894FA9AF99A0FBE019631
:1018C00008950E94A30C08F481E00895E89409C0EB
:1018D00097FB3EF490958095709561957F4F8F4F63
:1018E0009F4F9923A9F0F92F96E9BB279395F69579
:1018F000879577956795B795F111F8CFFAF4BB0FF7
:1019000011F460FF1BC06F5F7F4F8F4F9F4F16C05A
:10191000882311F096E911C0772321F09EE8872FE4
:10192000762F05C0662371F096E8862F70E060E0A0
:101930002AF09A95660F771F881FDAF7880F969519
:10194000879597F90895990F0008550FAA0BE0E8BD
:10195000FEEF16161706E807F907C0F01216130671
:10196000E407F50798F0621B730B840B950B39F4B1
:101970000A2661F0232B242B252B21F408950A2617
:1019800009F4A140A6958FEF811D811D08950E9445
:10199000DA0C0C944B0D0E943D0D38F00E94440D62
:1019A00020F0952311F00C94340D0C943A0D112471
:1019B0000C947F0D0E945C0D70F3959FC1F3950F01
:1019C00050E0551F629FF001729FBB27F00DB11DC3
:1019D000639FAA27F00DB11DAA1F649F6627B00D53
:1019E000A11D661F829F2227B00DA11D621F739F3C
:1019F000B00DA11D621F839FA00D611D221F749F4A
:101A00003327A00D611D231F849F600D211D822F90
:101A1000762F6A2F11249F5750409AF0F1F08823B7
:101A20004AF0EE0FFF1FBB1F661F771F881F9150E4
:101A30005040A9F79E3F510580F00C94340D0C9452
:101A40007F0D5F3FE4F3983ED4F3869577956795D5
:101A5000B795F795E7959F5FC1F7FE2B880F911D0E
:101A60009695879597F9089597F99F6780E870E0B4
:101A700060E008959FEF80EC089500240A94161604
:101A8000170618060906089500240A94121613066C
:101A9000140605060895092E0394000C11F48823FA
:101AA00052F0BB0F40F4BF2B11F460FF04C06F5F16
:101AB0007F4F8F4F9F4F089557FD9058440F551FEC
:101AC00059F05F3F71F04795880F97FB991F61F0C0
:101AD0009F3F79F087950895121613061406551F37
:101AE000F2CF4695F1DF08C0161617061806991FA3
:101AF000F1CF86957105610508940895E894BB2798
:101B000066277727CB0197F90895DB018F939F9381
:101B10000E949B0DBF91AF91A29F800D911DA39F2D
:101B2000900DB29F900D11240895EE0FFF1F0590A8
:101B3000F491E02D09940E94A60DA59F900DB49FED
:101B4000900DA49F800D911D11240895A29FB001B6
:101B5000B39FC001A39F700D811D1124911DB29FE1
:101B6000700D811D1124911D089581E090E0F8947D
:081B70000C94BA0DF894FFCFAC
:101B780001FFFFFFFF00E100000000000000020479
:101B880006080A0C0E10121416181A1C1E22262AF1
:101B98002E363E465000C180810000000000000043
:0E1BA80014044B0535042A047B043904570449
:00000001FF
