:100000000C9464030C948C030C948C030C948C035C
:100010000C948C030C948C030C948C030C94440F60
:100020000C948C030C948C030C94E7110C945912CF
:100030000C948C030C948C030C948C030C948C0304
:100040000C948C030C948C030C948C030C948C03F4
:100050000C94EE0E0C948C030C948C030C94C2162E
:100060000C948C030C948C030C948C030C948C03D4
:100070000C948C030C948C030C948C030C948C03C4
:100080000C948C030C948C030C948C030C948C03B4
:100090000C94470D0C948C030C948C030C948C03DF
:1000A0000C948C030C948C030C948C03DC14DF14E0
:1000B000CE14D214D814001500150015E314E7145B
:1000C000EB14F114F5140015FB1400000000003EC1
:1000D0005B4F5B3E3E6B4F6B3E1C3E7C3E1C183CB8
:1000E0007E3C181C577D571C1C5E7F5E1C00183C14
:1000F0001800FFE7C3E7FF0018241800FFE7DBE75D
:10010000FF30483A060E2629792926407F05050743
:10011000407F05253F5A3CE73C5A7F3E1C1C08089F
:100120001C1C3E7F14227F22145F5F005F5F060964
:100130007F017F006689956A606060606094A2FFBD
:10014000A29408047E040810207E201008082A1CAF
:1001500008081C2A08081E101010100C1E0C1E0C7B
:1001600030383E3830060E3E0E060000000000001B
:10017000005F00000007000700147F147F14242A8A
:100180007F2A12231308646236495620500008075C
:100190000300001C2241000041221C002A1C7F1C7D
:1001A0002A08083E0808008070300008080808087F
:1001B000000060600020100804023E5149453E00E6
:1001C000427F400072494949462141494D33181444
:1001D000127F1027454545393C4A49493141211193
:1001E00009073649494936464949291E0000140085
:1001F00000004034000000081422411414141414A8
:10020000004122140802015909063E415D594E7C05
:100210001211127C7F494949363E414141227F41BA
:1002200041413E7F494949417F090909013E414118
:1002300051737F0808087F00417F41002040413F03
:10024000017F081422417F404040407F021C027F12
:100250007F0408107F3E4141413E7F090909063E67
:100260004151215E7F091929462649494932030136
:100270007F01033F4040403F1F2040201F3F403848
:10028000403F631408146303047804036159494D23
:1002900043007F4141410204081020004141417F59
:1002A00004020102044040404040000307080020CF
:1002B000545478407F2844443838444444283844CF
:1002C00044287F385454541800087E090218A4A406
:1002D0009C787F0804047800447D40002040403D25
:1002E000007F1028440000417F40007C047804789F
:1002F0007C080404783844444438FC182424181832
:10030000242418FC7C08040408485454542404048D
:100310003F44243C4040207C1C2040201C3C40307A
:10032000403C44281028444C9090907C4464544CA9
:100330004400083641000000770000004136080004
:1003400002010204023C2623263C1EA1A161123AAE
:100350004040207A385454555921555579412254FA
:10036000547842215554784020545579400C1E52FF
:1003700072123955555559395454545939555454A4
:10038000580000457C410002457D420001457C400B
:100390007D1211127DF0282528F07C54554500204F
:1003A00054547C547C0A097F4932494949323A44C1
:1003B00044443A324A4848303A4141217A3A42402C
:1003C0002078009DA0A07D3D4242423D3D404040FE
:1003D0003D3C24FF2424487E4943662B2FFC2F2BD1
:1003E000FF0929F620C0887E090320545479410072
:1003F00000447D413048484A32384040227A007AF1
:100400000A0A727D0D19317D2629292F28262929CE
:10041000292630484D4020380808080808080808F0
:10042000382F10C8ACBA2F102834FA00007B000017
:1004300008142A142222142A14085500550055AA1B
:1004400055AA55AAFF55FF55FF000000FF001010E8
:1004500010FF00141414FF001010FF00FF1010F024
:1004600010F0141414FC001414F700FF0000FF0037
:10047000FF1414F404FC141417101F10101F101F85
:100480001414141F00101010F0000000001F1010B2
:1004900010101F10101010F010000000FF101010AE
:1004A000101010101010FF10000000FF140000FFCB
:1004B00000FF00001F10170000FC04F414141710B4
:1004C000171414F404F40000FF00F71414141414A7
:1004D0001414F700F7141414171410101F101F141D
:1004E0001414F4141010F010F000001F101F00007E
:1004F000001F14000000FC140000F010F01010FFAA
:1005000010FF141414FF141010101F00000000F04E
:1005100010FFFFFFFFFFF0F0F0F0F0FFFFFF000023
:10052000000000FFFF0F0F0F0F0F3844443844FC4A
:100530004A4A4A347E02020606027E027E02635561
:100540004941633844443C04407E201E2006027E1C
:10055000020299A5E7A5991C2A492A1C4C7201722E
:100560004C304A4D4D303048784830BC625A463D98
:100570003E494949007E0101017E2A2A2A2A2A444D
:10058000445F444440514A444040444A5140000082
:10059000FF0103E080FF000008086B6B083612368D
:1005A0002436060F090F060000181800000010106E
:1005B000003040FF0101001F01011E00191D17122C
:1005C000003C3C3C3C000000000000000000240017
:1005D00027002A002D00300004080201104080404E
:1005E0001020408040800802040180402010020159
:1005F0001080102040402000000000250028002B23
:10060000002E003100040404040403040502020265
:10061000020403020202020606060606060404029B
:1006200002020404080B0002020201000904000097
:10063000010202000005240010010524010101044B
:100640002402060524060001070581031000400965
:10065000040100020A000000070502024000000732
:100660000583024000000403090412010002EF02A6
:10067000014041233680000101020301417264758B
:10068000696E6F204C4C430041726475696E6F2037
:100690004C656F6E6172646F0000000000230026DD
:1006A0000029002C002F000000000200090F0000AC
:1006B000030401000C000000000000000000000026
:1006C000000000000000421C11241FBECFEFDAE042
:1006D000DEBFCDBF15E0A0E0B1E0E8E6FFE302C079
:1006E00005900D92AC39B107D9F726E0ACE9B5E039
:1006F00001C01D92AE3FB207E1F713E0C4E6D3E0BC
:1007000004C02197FE010E94CF1CC336D107C9F750
:100710000E94FB170C94B21F0C9400000F931F93C0
:10072000CF93DF93DC0155968C915597823071F011
:10073000833009F1813009F08CC01496ED91FC9161
:100740001597E41BF50BE21BF30B20C01496ED91FB
:10075000FC911597CF01861B970BBC016150710965
:100760001696ED91FC911797CF01841B950BAC0168
:10077000421B530B6EC01696ED91FC911797CF015B
:10078000861B970BBC0161507109FA0177FD1BC1F3
:1007900016968D919C911797681779070CF013C1E5
:1007A000F7FF04C02E0F3F1FE0E0F0E014968D919C
:1007B0009C911597AF01420F531F841795071CF4A6
:1007C0009C012E1B3F0B121613060CF0FCC0CB0134
:1007D00077FD079643E0959587954A95E1F79695BD
:1007E000982F882797958795E80FF91FE35FFE4FAD
:1007F0006770772781E090E001C0880F6A95EAF77B
:10080000482F0130110541F088F00230110509F040
:10081000DAC02E0F3F1F15C02E0F3F1FE217F30740
:1008200009F4D1C08081842B8193F8CF80952E0F5D
:100830003F1FE217F30709F4C6C0908198239193F4
:10084000F8CFE217F30709F4BEC0808184278193B3
:10085000F8CF77FDB8C014968D919C9115976817C5
:1008600079070CF0B0C057FF04C0240F351F40E0DB
:1008700050E016968D919C911797FA01E20FF31FA5
:100880008E179F071CF49C01241B350B12161306B0
:100890000CF099C0A22F842F86958695869590E8B6
:1008A000899F600D711D1124FB01E35FFE4F4770AE
:1008B000A9F198E0941B492F50E0EA01CB5EDA4F92
:1008C0008881291790F4421B51092FEF30E002C0B4
:1008D000359527954A95E2F782230130110541F0BD
:1008E00068F00230110589F06EC00130110519F46D
:1008F0002081822B0CC00130110520F480952081CD
:10090000822305C00230110531F4208182278083C3
:10091000A91708F458C0A91BE058FF4FA83048F1A8
:100920000230110559F4EF018A2F98819095988330
:10093000C058DF4F88508830C0F730C081E00130A8
:10094000110509F080E08195EF019A2F8883C05846
:10095000DF4F98509830D0F788EF8A0F86958695AC
:10096000869590E8899FE00DF11D1124E058FF4F16
:10097000A770AA2341F1B0E0A35FBA4F8C91013078
:10098000110529F038F002301105D1F01CC090811A
:10099000892B18C080959081892314C088EF8A0F15
:1009A00086958695869590E8899FE00DF11D112426
:1009B000E058FF4FA77039F0B0E0A35FBA4F8C91B9
:1009C000908189278083DF91CF911F910F910895A6
:1009D0000F931F93CF93DF93DC01FB0155968C910E
:1009E0005597823081F0833019F1813051F514969A
:1009F0008D919C911597BC01641B750BAB01415007
:100A00005109BF0181C014966D917C911597CB015E
:100A10008E1B9F0BFC0116968D919C911797BC0124
:100A2000641B750BAB0141505109E21BF30B09C06C
:100A300016966D917C9117976E1B7F0B621B730B43
:100A400063C057FD1CC116968D919C91179748174E
:100A500059070CF014C1F7FF04C02E0F3F1FE0E050
:100A6000F0E014968D919C911597BF01620F731F52
:100A7000861797071CF49C012E1B3F0B12161306BA
:100A80000CF0FDC0CA0157FD079663E09595879568
:100A90006A95E1F79695982F882797958795E80F9F
:100AA000F91FE35FFE4F4770552781E090E001C0DA
:100AB000880F4A95EAF7482F0130110541F088F078
:100AC0000230110509F0DBC02E0F3F1F15C02E0F9D
:100AD0003F1FE217F30709F4D2C08081842B819372
:100AE000F8CF80952E0F3F1FE217F30709F4C7C018
:100AF000908198239193F8CFE217F30709F4BFC0D0
:100B0000808184278193F8CF57FDB9C014968D91C9
:100B10009C911597481759070CF0B1C077FF04C096
:100B2000260F371F60E070E016968D919C91179705
:100B3000FB01E20FF31F8E179F071CF49C01261B7D
:100B4000370B121613060CF09AC0A22F862F86952B
:100B50008695869590E8899F400D511D1124FA01D4
:100B6000E35FFE4F6770A9F198E0961B492F50E0B4
:100B7000EA01CB5EDA4F8881291790F4421B5109B4
:100B80002FEF30E002C0359527954A95E2F7822392
:100B90000130110541F068F00230110589F06FC095
:100BA0000130110519F42081822B0CC00130110590
:100BB00020F480952081822305C00230110531F494
:100BC000208182278083A91708F459C0A91BE05807
:100BD000FF4FA83048F10230110559F4EF018A2F78
:100BE000988190959883C058DF4F88508830C0F71F
:100BF00031C081E00130110509F080E08195EF01FD
:100C00009A2F8883C058DF4F98509830D0F788EFDC
:100C10008A0F86958695869560E8869FE00DF11D82
:100C20001124E058FF4FA770AA2349F1B0E0A35F59
:100C3000BA4F8C910130110529F038F002301105BE
:100C4000D9F01DC09081892B03C0809590818923A4
:100C5000808315C088EF8A0F86958695869570E803
:100C6000879FE00DF11D1124E058FF4FA77039F068
:100C7000B0E0A35FBA4F8C9190818927E9CFDF91D3
:100C8000CF911F910F910895FC0177FD9AC0808547
:100C90009185681779070CF094C057FD92C0828542
:100CA0009385481759070CF08CC08589823009F06C
:100CB0007CC084819581DC01A61BB70BBD0161500E
:100CC000710986819781FC01E41BF50BAF0141504E
:100CD00051090AC0813041F484819581841B950BB0
:100CE000AB01BC01615071092130310529F008F1D7
:100CF00022303105E1F10895FA0157FD3796A3E05E
:100D0000F595E795AA95E1F7F695FE2FEE27F7956D
:100D1000E7956E0F7F1FFB01E35FFE4F477055277E
:100D200081E090E001C0880F4A95EAF79081892B15
:100D30003AC0FA0157FD379623E0F595E7952A95D5
:100D4000E1F7F695FE2FEE27F795E7956E0F7F1FDB
:100D5000FB01E35FFE4F4770552781E090E001C043
:100D6000880F4A95EAF78095908189231CC0FA0183
:100D700057FD379683E0F595E7958A95E1F7F69567
:100D8000FE2FEE27F795E7956E0F7F1FFB01E35FC0
:100D9000FE4F4770552781E090E001C0880F4A95CB
:100DA000EAF79081892780830895833009F092CFF4
:100DB00086819781861B970BBA01AC01415051097E
:100DC00093CF08950895FC016370658B84819581AC
:100DD00026813781613039F0633029F0918780872F
:100DE00033872287089531872087938782870895E4
:100DF0002F923F924F925F926F927F928F929F922B
:100E0000AF92BF92CF92DF92EF92FF920F931F9318
:100E1000CF93DF93CDB7DEB76C970FB6F894DEBFF4
:100E20000FBECDBF9C8F8B8F5B011A011F830E837A
:100E30003701C982DC0158964D915C915997411553
:100E4000510509F0E5C018968D919C911997681786
:100E500079070CF0CAC11A968D919C911B972816A0
:100E600039060CF0C2C18C2C912CFB0136E0C39EDC
:100E7000E00DF11D1124FB87EA871E161F060CF0FA
:100E8000B4C1C40133E0880F991F3A95E1F79D87FB
:100E90008C87820D931D181619060CF0A6C1579663
:100EA0008C91811103C0203B08F02F5FAB8DBC8D6E
:100EB000ED91FC9111970284F385E02DCD012A8FED
:100EC00009952A8DB5E02B9F90011124F5013596E7
:100ED000FF87EE87BB82AA822501A9014A195B0917
:100EE000598B488BC10108969B8B8A8BE889F989BD
:100EF000E40DF51DE653FF4F9491988761013D8203
:100F00002C82A885A0FF13C0AB8DBC8DED91FC9108
:100F1000B981B13031F40484F585E02D2E813F8113
:100F200016C00684F785E02DEE80FF801AC0EE81A2
:100F3000FF816E167F06F1F0AB8DBC8DED91FC91BB
:100F4000B981B13051F40484F585E02D9301A601F7
:100F5000B2018B8D9C8D09950DC00684F785E02D1F
:100F60007301840194014C815D816A817B818B8D49
:100F70009C8D0995E885E695E887FFEFCF1ADF0A93
:100F80002C813D81280D391D3D832C834A895B8945
:100F9000C416D50609F0B5CF5FEF451A550A8A8108
:100FA0009B81880D991D9B838A83AE85BF854A16D8
:100FB0005B0609F09BCFEE81FF816E167F0609F478
:100FC000F2C0EB8DFC8DA081B181F981F13079F413
:100FD000B5016B5F7F4F5096ED91FC915197830166
:100FE00028E030E0A1018B8D9C8D0995DCC06A85DD
:100FF0007B85681979091E96ED91FC911F97730105
:101000000C851D859401A1018B8D9C8D0995CBC00C
:10101000FA0134969491329765917491291BCB0112
:10102000B7E02B9F800D911D1124FA012591349179
:101030003B8B2A8BFC01459154915B834A83FC01D5
:101040003296C490319654915E87329614913196BF
:10105000D4908981823058F0612E012E000C7708DF
:10106000AD2D0D2C000CBB0BB987A88704C01986C9
:101070001886612C712CAB8DBC8DED91FC91119774
:101080000284F385E02DCD010995B9818B2E912C39
:10109000689CC001699C900D789C900D1124FC0106
:1010A000EA0DFB1DFD87EC871C82712C612CE12F62
:1010B000110FFF0B95012E0F3F1F3B872A87AC0CAA
:1010C000B11CA5014E0F5F1F5F8B4E8BC1018D0DB3
:1010D000911DD7FC9A95998F888F4E85641608F0DC
:1010E00062C0862D90E048855985480F591F489D5C
:1010F0009001499D300D589D300D1124D901A20D4C
:10110000B31DB98BA88BAA84BB844C845D84DC801E
:10111000BA85DB1AE88DF98DE80FF91FFD8BEC8B92
:101120008D2D8A0D2E893F89A216B306B9F18770DD
:1011300061F48A819B810196EA89FB89AA81BB813E
:10114000EA0FFB1F74909B838A8377FE20C0AB8DD0
:10115000BC8DED91FC91B981B13061F40484F585C9
:10116000E02D2E813F814C895D89B5018B8D9C8D51
:1011700009950DC00684F785E02DEE80FF8084017F
:10118000940148895989B2018B8D9C8D0995770C02
:10119000EFEFAE1ABE0A480C591CC2CF3C813C0D81
:1011A0003C8363949ACFAB8DBC8DED91FC911197EC
:1011B0000688F789E02DCD016C960FB6F894DEBF56
:1011C0000FBECDBFDF91CF911F910F91FF90EF9098
:1011D000DF90CF90BF90AF909F908F907F906F9057
:1011E0005F904F903F902F9009946C960FB6F894B3
:1011F000DEBF0FBECDBFDF91CF911F910F91FF904A
:10120000EF90DF90CF90BF90AF909F908F907F90A6
:101210006F905F904F903F902F900895AF92BF9244
:10122000CF92EF92FF920F931F93CF93DF93EC0136
:10123000262F888D998D009709F040C06A3059F4A7
:101240001D861C862C898E859F8538E0239F800D06
:10125000911D112441C06D3009F4AAC08E898823E4
:10126000C1F03C898C859D8546E0349F800D911DA1
:10127000112448855985481759075CF41D861C863A
:101280008E859F8548E0349F800D911D11249F8796
:101290008E87EA88FB88088919894E855F856C8569
:1012A0007D85CC88CE010E94F8062C898C859D8591
:1012B00036E0239F800D911D112442C06A3079F4DD
:1012C0001D861C862C89FC013696E4918E859F85AF
:1012D0002E9F800D911D11249F878E8769C06D30D0
:1012E00009F466C0FC0134963491631708F460C0B9
:1012F0003196E491E61708F45BC0FC013296A590A4
:10130000B490462F50E0431B510937E0349FB001A1
:10131000359F700D1124A60EB71EF501329634913B
:101320003196E491332311F0E1110DC0F5013496AB
:10133000E4912C898C859D85E29F800D911D11245F
:101340009D878C8735C0F501359644915E8955237C
:1013500011F16C89E32FF0E0E40FF11D47FDFA95E0
:101360006E9FD0016F9FB00D11244C855D854A0F93
:101370005B1FE885F985E417F5076CF41D861C866C
:10138000FC013696E4918E859F856E9F800D911DA0
:1013900011249F878E87EA88FB88088919894E85E2
:1013A0005F856C857D85CC88CE010E94F806BECF16
:1013B00081E090E0DF91CF911F910F91FF90EF902E
:1013C000CF90BF90AF9008956F927F928F929F922F
:1013D000AF92BF92CF92DF92EF92FF920F931F9343
:1013E000CF93DF93EC014B015A0169013801E88189
:1013F000F9810284F385E02D0995E881F98102885D
:10140000F389E02D87019601A501B401CE0109956C
:10141000E881F981A501460D571D41505109028807
:10142000F389E02D9601B401CE010995E881F98197
:101430000088F189E02D9301A501B401CE01099541
:10144000E881F981C80CD91CB60161507109008886
:10145000F189E02D9301A501CE010995E881F9817B
:101460000688F789E02DCE01DF91CF911F910F9172
:10147000FF90EF90DF90CF90BF90AF909F908F90B4
:101480007F906F900994CF92DF92EF92FF920F932B
:101490001F93CF93DF9300D000D000D0CDB7DEB73D
:1014A0006C01DC01ED91FC916217730789F404175C
:1014B00015072CF4942F852FA801092F182F041B32
:1014C000150B98012F5F3F4F048CF58DE02D12C056
:1014D0004017510709F5261737072CF4962F872F49
:1014E000B901292F382F261B370B2F5F3F4F068C52
:1014F000F78DE02D8701C601099526960FB6F89461
:10150000DEBF0FBECDBFDF91CF911F910F91FF9036
:10151000EF90DF90CF9008950284F385E02D2D8326
:101520003E834B835C8369837A830995D601ED9171
:10153000FC910488F589E02D2D813E814B815C81F1
:1015400069817A81C6010995D601ED91FC910688E1
:10155000F789E02DC60126960FB6F894DEBF0FBEC0
:10156000CDBFDF91CF911F910F91FF90EF90DF9052
:10157000CF900994EF92FF920F931F93DC01ED91AE
:10158000FC9111971A960D911C911B9718962D910D
:101590003C91199700A0F1A1E02D7B0140E050E0C3
:1015A00060E070E009951F910F91FF90EF90089512
:1015B0004F925F926F927F928F929F92AF92BF9263
:1015C000CF92DF92EF92FF920F931F93CF93DF930F
:1015D00000D0CDB7DEB76C015A0139014801DC01FA
:1015E000ED91FC910284F385E02D69837A8309955E
:1015F0006981462E7A81572E640C751CD601ED91B7
:10160000FC91461457046CF40088F189E02D8701A1
:101610009401A501B201C6010995BFEF4B1A5B0AFF
:10162000EDCF0688F789E02DC6010F900F90DF916E
:10163000CF911F910F91FF90EF90DF90CF90BF90CF
:10164000AF909F908F907F906F905F904F90099494
:10165000AF92BF92CF92DF92EF92FF920F931F93C0
:10166000CF93DF9300D000D0CDB7DEB75C01690126
:10167000DC01ED91FC910284F385E02D4B835C83CA
:1016800069837A830995D501ED91FC9169817A810D
:101690009B012C0D3D1D215031090488F589E02D59
:1016A00078014B815C818A01C5010995D501ED91D5
:1016B000FC910688F789E02DC5010F900F900F90DF
:1016C0000F90DF91CF911F910F91FF90EF90DF90DE
:1016D000CF90BF90AF900994AF92BF92CF92DF921C
:1016E000EF92FF920F931F93CF93DF9300D000D020
:1016F000CDB7DEB75C016901DC01ED91FC9102849C
:10170000F385E02D4B835C8369837A830995D5014A
:10171000ED91FC914B815C81C40ED51EB1E0CB1ADA
:10172000D1080488F589E02D7801860169817A81E4
:101730009B01C5010995D501ED91FC910688F789BA
:10174000E02DC5010F900F900F900F90DF91CF917A
:101750001F910F91FF90EF90DF90CF90BF90AF90CF
:1017600009940895EF92FF920F931F93DC01ED917E
:10177000FC9100A0F1A1E02D09951F910F91FF9020
:10178000EF9008950F931F93DC01ED91FC91068C6F
:10179000F78DE02D09951F910F9108950F931F93D9
:1017A000DC01ED91FC91048CF58DE02D09951F91E4
:1017B0000F910895DC01ED91FC910084F185E02DFD
:1017C000099408952F923F924F925F926F927F9269
:1017D0008F929F92AF92BF92CF92DF92EF92FF9241
:1017E0000F931F93CF93DF9300D01F92CDB7DEB737
:1017F0004C017B836A836A01590117019801241BFC
:10180000350B37FF03C0319521953109C5014A8158
:101810005B81841B950B97FF03C09195819591097E
:1018200051E059838217930714F019820BC09A2D47
:101830008B2D5801092F182F9A818B81DB82CA8248
:10184000C92ED82E8A819B81A816B9065CF49C2DDE
:101850008D2D6801092F182F9A818B81BB82AA8256
:10186000A92EB82E2501AA81BB814A1A5B0A38012C
:101870006C187D0877FE03C0719461947108720141
:1018800057FE03C0BFEFEB1AFB0AF594E794C016AE
:10189000D1061CF00FEF1FEF1FC001E010E01CC0CD
:1018A000D401ED91FC91B9810484F585E02D91017D
:1018B000BB23C1F04A815B81B601C4010995E618DA
:1018C000F708F7FE04C0C00ED11EE40CF51CEA8137
:1018D000FB813196FB83EA834A815B81A416B506BE
:1018E000FCF604C0A6016A817B81E7CF0F900F90C0
:1018F0000F90DF91CF911F910F91FF90EF90DF90AC
:10190000CF90BF90AF909F908F907F906F905F909F
:101910004F903F902F90089585ED8093BC0080916B
:10192000BC0084FDFCCF1092260608954091C605A8
:10193000262F30E0240F311D21323105DCF42091B7
:1019400026062430C9F4FC0180E090E0861758F4A4
:101950003091C6052191DC01AC55BA4FA30FB11DE2
:101960002C930196F3CF8091C605680F6093C6054E
:1019700080E0089581E0089582E00895089581E06F
:1019800090E03091EC052091EB05321710F480E0E7
:1019900090E091958195910908958091EC05909141
:1019A000EB05891730F48F5F8093EC0580E090E0C1
:1019B00008958FEF9FEF08958091EB0590E02091BF
:1019C000EC05821B91090895CF92DF92EF92FF926E
:1019D0000F931F93CF93DF937C01262F972F8A01BC
:1019E00080912706882391F0C62FD72F6E01C40E51
:1019F000D51ECC15DD0571F06991D701ED91FC91F3
:101A00000190F081E02DC7010995F3CF642F822F5B
:101A10000E94960CC801DF91CF911F910F91FF900A
:101A2000EF90DF90CF900895CF93DF931F92CDB7C3
:101A3000DEB76983209127062223D1F02091490641
:101A4000203240F021E030E0FC013383228380E04B
:101A500090E015C080912806E82FF0E0E75DF94F8F
:101A6000998190838F5F809328068093490605C0F3
:101A700061E0CE0101960E94960C81E090E00F900B
:101A8000DF91CF910895089580E090E008951F922E
:101A90000F920FB60F9211242F933F934F935F93A2
:101AA0006F937F938F939F93AF93BF93EF93FF9326
:101AB0008091B900887F803609F49CC068F588322F
:101AC00009F45BC090F4803109F454C038F48823E1
:101AD00009F4F6C0883009F44DC0F6C0883109F425
:101AE0004CC0803209F45DC0EFC0803409F468C096
:101AF00048F4803309F455C0883309F0E5C0809379
:101B00002406D8C0803509F44FC0883509F45DC07B
:101B1000883409F0D9C0D6C0883909F4C7C0A8F400
:101B2000883709F467C038F4883609F463C0803711
:101B300009F460C0C9C0883809F4B8C0803909F414
:101B40005FC0803809F0C0C05BC0803B09F486C02C
:101B500038F4803A09F466C0883A09F47FC0B4C00A
:101B6000803C09F4A7C0883C09F4A4C0883B09F470
:101B70008AC0AAC08091010610C09091230680916E
:101B80002206981770F5E091230681E08E0F80936E
:101B90002306F0E0EE5FF94F80818093BB0085EC77
:101BA00086C0809324068EC0E091230681E08E0FCC
:101BB000809323068091BB00F0E0EE5FF94F8083B5
:101BC00090912306809122066EC0E091230681E069
:101BD0008E0F809323068091BB00F0E0EE5FF94FFB
:101BE00080838091250681116DC081E0809300067D
:101BF00084EA61C083E0809326061092EA05CFCF85
:101C00008091EA05803208F051C0E091EA0581E058
:101C10008E0F8093EA058091BB00F0E0E653FA4F07
:101C20008083BDCF85EC8093BC0010922606809106
:101C3000EA05803230F4E091EA05F0E0E653FA4F2D
:101C400010826091EA0570E0E091C805F091C90545
:101C50008AEC95E009951092EA0536C084E08093FD
:101C600026061092C7051092C605E091C405F091B2
:101C7000C50509958091C605811105C081E0809355
:101C8000C6051092A405E091C70581E08E0F8093F0
:101C9000C705F0E0EC55FA4F80818093BB0090912E
:101CA000C7058091C605981708F479CF85E8809319
:101CB000BC000AC085EC8093BC001092260604C0CC
:101CC000109224060E948C0CFF91EF91BF91AF916E
:101CD0009F918F917F916F915F914F913F912F9144
:101CE0000F900FBE0F901F901895EF92FF920F93D9
:101CF0001F93CF93DF9300D01F92CDB7DEB7E12CB7
:101D0000F12C00E110E028E130E041E250E06AE32C
:101D100070E086EA96E00E94D80AE6EAF6E08AE3F6
:101D200090E09587848781E290E097878687198283
:101D30001A821B828091000190E001979F938F93FC
:101D40008FE795E09F938F938E010F5F1F4F1F9337
:101D50000F930E94DA1CC8010E9486110E94041190
:101D60000F900F900F900F900F900F900F900F907B
:101D70000F90DF91CF911F910F91FF90EF900895F9
:101D800080910001823090F0809100018150809319
:101D90000001E0910001F0E0E45EFA4F808190E004
:101DA00090938B0080938A000C94750E0895809117
:101DB00000018B3090F4809100018F5F80930001CF
:101DC000E0910001F0E0E45EFA4F808190E09093B2
:101DD0008B0080938A000C94750E08951F920F92C9
:101DE0000FB60F9211242F935F936F937F938F936E
:101DF0009F93AF93BF93EF93FF938091A205909130
:101E0000A305883A914640F11092A3051092A205CD
:101E100081E08093F3058091A0059091A1059093B6
:101E20009F0580939E05E0919D05F0E080919E05C1
:101E300090919F05E251FA4F808380919D0590E03B
:101E4000019665E070E00E94BB1C80939D05109296
:101E5000A1051092A00509C08091A2059091A3054B
:101E600001969093A3058093A205FF91EF91BF91F6
:101E7000AF919F918F917F916F915F912F910F9073
:101E80000FBE0F901F9018951F920F920FB60F92D2
:101E900011248F939F938091A0059091A1050196A5
:101EA0009093A1058093A00580919C058F5F8093FE
:101EB0009C0580919C05823029F410929C0581E05C
:101EC0008093ED059F918F910F900FBE0F901F9003
:101ED00018954091F8055091F9052091F60530913B
:101EE000F70542175307B4F49091E8009570E1F3B9
:101EF0009091E80092FD19C08093F1008091F8055F
:101F00009091F90501968F739927892B19F48EEF1B
:101F10008093E8008091F8059091F90501969093DF
:101F2000F9058093F80581E0089580E00895CF9247
:101F3000DF92EF92FF920F931F93CF93DF936C0189
:101F40007A018B01C0E0D0E0CE15DF0589F0D80121
:101F50006D918D01D601ED91FC910190F081E02D04
:101F6000C6010995892B11F47E0102C02196ECCFA0
:101F7000C701DF91CF911F910F91FF90EF90DF90FC
:101F8000CF900895DF92EF92FF920F931F93CF931C
:101F9000DF93D82E8A017B01E40EF51EEB01CE15EE
:101FA000DF0571F0D7FE03C0FE01849101C0888176
:101FB0000E94690F21968111F2CF8FEF9FEF01C030
:101FC000C801DF91CF911F910F91FF90EF90DF90AB
:101FD00008950F931F93CF93DF931F92CDB7DEB772
:101FE00082E0898342E450E064E276E080E80E9487
:101FF000C20F0E94D311DC0112960D911C91139710
:102000000115110569F0D801ED91FC910280F38171
:10201000E02DBE016F5F7F4FC801099597FF07C094
:1020200089810F90DF91CF911F910F910895F80151
:1020300000851185E5CF615030F02091F100FC0161
:1020400020830196F8CF289884E68093FE050895B2
:10205000209149069091F406213208F04AC08091FF
:1020600026068111FCCF32E03093260631E0309312
:1020700025063FEF30932406109223062093220674
:10208000A9E2B6E042E056E0FA013E2F341B3217D7
:1020900018F43D913193F9CF109201062091010679
:1020A000990F922B9093010690910006913061F464
:1020B00010920006909101069093BB009091BC0095
:1020C00093FDF8CF95EC01C095EE9093BC009091F4
:1020D00026069230E1F3909124069F3F79F080919B
:1020E0002406803241F080912406803331F084E070
:1020F00005C081E003C082E001C083E010922806A1
:10210000109249061092270608959091C7069923C8
:1021100039F08EBD00000DB407FEFDCF8EB50895D9
:1021200028E030E040E8E091CA06F091CB0650810B
:102130009091D106909595239083E091C806F091F7
:10214000C9069091D006542F582319F05081952B31
:1021500003C05081909595239083E091CA06F09139
:10216000CB0650819091D106952B908346952150B6
:102170003109C9F60895CF93C82F8091C2068F3FC9
:1021800059F1E091CC06F091CD0680819091D20674
:10219000982B9083E091CE06F091CF06208190910C
:1021A000D306909592239083E091CC06F091CD06D2
:1021B00020819091D2069095922390838C2F0E943B
:1021C0008510E091CC06F091CD0690818091D206E9
:1021D000892B8083CF9108958091C00691E09093E0
:1021E00027068093F406109228061092490660E0B4
:1021F0008AE996E00E94140D6C2F8AE996E00E940D
:10220000140DCF910C942810EF92FF920F931F930F
:10221000CF93DF9381E20E94BB1080E00E94BB104D
:102220008FE70E94BB1082E20E94BB1080E00E94F8
:10223000BB1087E00E94BB108091C2068F3F79F1EE
:10224000E091CC06F091CD0690818091D206892B49
:102250008083E091CE06F091CF0690818091D306E5
:10226000892B8083E091CC06F091CD0690818091FE
:10227000D206809589238083CDE0D1E089910E94A8
:10228000851085E0CD30D807C9F7E091CC06F091F4
:10229000CD0690818091D206892B808330C0F0904A
:1022A000B8008CE08093B800CDE0D1E0EE24E39458
:1022B0008091C006E09227068093F40610922806CB
:1022C0001092490660E48AE996E00E94140D00E04D
:1022D00010E0FE01E00FF11F60818AE996E00E94A4
:1022E000140D0F5F1F4F0031110599F70E94281040
:1022F000609685E0CD30D807D9F6F092B800DF912E
:10230000CF911F910F91FF90EF900895009769F082
:10231000FC0101900020E9F73197AF01481B590BF0
:10232000BC0186EA96E00C94970F80E090E0089557
:10233000FC018091FF05811103C08FEF9FEF08958D
:102340009FB7F89482E08093E9002091F20030E09A
:102350001216130614F421E030E02115310559F06E
:10236000289884E68093FE058091F1008083809117
:10237000F200882319F09FBFC90108958BE680936E
:10238000E800F9CF2FB7F89483E08093E9009091AB
:10239000E800892F807295FF04C09091F20080E4DC
:1023A000891B2FBF08958091EC0681110DC082E03A
:1023B0008093E80684E08093E9061092EB06109281
:1023C000EA0681E08093EC0688EE96E008951F927D
:1023D0000F920FB60F9211248F939F938091E1007B
:1023E0009091E100937F9093E10083FF0FC01092E2
:1023F000E90091E09093EB001092EC0092E390934F
:10240000ED001092FF0598E09093F00082FF20C04D
:1024100093E09093E9009091F200992319F09AE3E8
:102420009093E8009091FD05992339F09091FD0576
:1024300091509093FD05992389F19091FE05992380
:1024400039F09091FE0591509093FE05992341F14A
:1024500084FF10C08091E2008E7E81608093E20054
:102460008091E1008F7E8093E1008091FC058E7E5B
:10247000806111C080FF16C08091E2008E7E806175
:102480008093E2008091E1008E7E8093E100809154
:10249000FC058E7E81608093FC0504C05D9ACDCFE3
:1024A000289AD6CF9F918F910F900FBE0F901F90BB
:1024B00018951F920F920FB60F921124CF92DF92B0
:1024C000EF92FF920F931F932F933F934F935F933E
:1024D0006F937F938F939F93AF93BF93EF93FF93EC
:1024E000CF93DF93CDB7DEB76C97DEBFCDBF109231
:1024F000E9008091E80083FFEDC168E0CE014596D8
:102500000E941B1082EF8093E8008D8987FF05C031
:102510009091E80090FFFCCF03C09EEF9093E800FD
:10252000982F907609F0C6C09E892F89188D911139
:102530000CC0803829F48091FB058093F10002C023
:102540001092F1001092F10048C1422F50E0512B3F
:10255000913051F4811141C14130510509F03DC123
:102560008091FB058D7F0BC0933061F4811135C1E3
:102570004130510509F031C18091FB0582608093A3
:10258000FB052BC1953041F48091E80080FFFCCF22
:1025900020682093E30021C1963009F05FC0EB8CE6
:1025A000FC8C1092E9001092F9051092F805123097
:1025B00091F51092F7051092F6050E94E90F99E047
:1025C000BE016F5F7F4FDB01E92F1D92EA95E9F7AE
:1025D00099831A8391E09E8390EA98879AEF99876E
:1025E0002091F8053091F905275F3F4F3C832B83FD
:1025F0008D831092E9001092F9051092F805F0927F
:10260000F705E092F60549E050E080E00E94C20F35
:102610000E94E90FE2C0F092F705E092F6050E94F1
:10262000D311DC011296ED90FC901397E114F104A4
:1026300009F4C0C0D701ED91FC910480F581E02D33
:10264000BE016B5E7F4FC7010995009719F00CF032
:10265000C4C0C7C0F701E084F184E8CF973009F423
:10266000C0C0983021F481E08093F100B6C0993069
:1026700009F0B3C0837009F0B4C0E9E2F5E081E08D
:1026800021E036E39081992361F08093E900209363
:10269000EB0091919093EC003093ED008F5F8730C9
:1026A00089F78EE78093EA001092EA008F89809381
:1026B000FF0593C08B8D9C8D1092E9001092F90557
:1026C0001092F8059093F7058093F605898D811196
:1026D00056C08E899D89913A59F4813209F081C0A2
:1026E00047E050E065E071E080E00E94C20F75C0F5
:1026F000913209F076C0833289F4888D90E0982F6A
:1027000088272F89822BA0E0B0E08093010190936D
:102710000201A0930301B09304015FC0803269F409
:102720008091E80082FFFCCF67E085E091E00E94A5
:102730001B108BEF8093E80006C0823209F04DC079
:102740008F8980930C018091FA05882319F0EEEFB0
:10275000FAE002C0E0E0F8E0809105019091060106
:10276000A0910701B0910801803B9440A105B105FB
:1027700009F07BC080910C0180FF93C076C00E945D
:10278000D311DC0112960D911C91139701151105BF
:1027900041F1D801ED91FC910190F081E02DBE0155
:1027A0006B5E7F4FC8010995811117C0F801008544
:1027B0001185ECCF113009F44EC0133091F48F899C
:1027C000882309F445C0823081F440E860E188E85C
:1027D00096E00E94BE17882321F08EEF8093E800D8
:1027E00079C081E28093EB0075C0813029F440E824
:1027F0006BE08CE796E0EDCF833099F70E94D31120
:10280000DC011296ED90FC9013978E010F5F1F4F25
:102810006801E114F10479F0D701ED91FC91068093
:10282000F781E02DB801C7010995080F111DF701C7
:10283000E084F184EECFD8011C92F60101900020D3
:10284000E9F73197BF016C197D0940E0C601C1CF9E
:1028500066E676E002C06AE676E06115710509F287
:10286000FB01449150E080E840CF0FB6F894A89562
:1028700080916000886180936000109260000FBEBC
:10288000A895EE3F2AE0F20739F08091FE0A909178
:10289000FF0A91838083A1CF1092FF0A1092FE0A53
:1028A0009CCFEE3F8AE0F80731F0808191819093D0
:1028B000FF0A8093FE0A87E797E7918380839BE076
:1028C00088E10FB6F894A895809360000FBE9093AE
:1028D000600083CF6C960FB6F894DEBF0FBECDBFFD
:1028E000DF91CF91FF91EF91BF91AF919F918F9128
:1028F0007F916F915F914F913F912F911F910F9118
:10290000FF90EF90DF90CF900F900FBE0F901F9031
:102910001895CF93DF931F92CDB7DEB76983DC01A3
:10292000ED91FC910280F381E02D41E050E0BE0189
:102930006F5F7F4F09950F90DF91CF91089583E0EE
:102940008093E9008091F200882319F08AE3809354
:10295000E8000895FC018485958597FD0BC09FB71D
:10296000F89482E08093E9008091F2009FBF90E0AC
:10297000019608959FB7F89482E08093E9008091D2
:10298000F2009FBF90E0089590E0FC013197EF3096
:10299000F105B0F5EA5AFF4F0C94CF1C80918000EE
:1029A0008F7703C0809180008F7D80938000089591
:1029B00080918000877FF9CF84B58F7702C084B57E
:1029C0008F7D84BD0895809190008F7707C080919E
:1029D00090008F7D03C080919000877F809390004E
:1029E00008958091C0008F7703C08091C0008F7DD3
:1029F0008093C00008958091C200877F8093C200B9
:102A00000895CF93DF93282F30E0F901E955F94F6E
:102A10008491F901E852FA4FD491F901EB5FF94F33
:102A2000C491CC2391F081110E94C414EC2FF0E0EA
:102A3000EE0FFF1FE756F94FA591B491EC91ED23EE
:102A400081E090E021F480E002C080E090E0DF913E
:102A5000CF9108953FB7F8948091FA069091FB06C4
:102A6000A091FC06B091FD0626B5A89B05C02F3F9E
:102A700019F00196A11DB11D3FBFBA2FA92F982FA4
:102A80008827820F911DA11DB11DBC01CD0142E01F
:102A9000660F771F881F991F4A95D1F708950E94E6
:102AA000C21190E008950F931F93CF93DF931F926D
:102AB000CDB7DEB78C01FC018485958597FF0EC0EC
:102AC000CE0101960E949811019719F4298130E0F6
:102AD00002C02FEF3FEFF80135872487F801848586
:102AE00095850F90DF91CF911F910F910895CF930E
:102AF000DF931F92CDB7DEB7FC018485958597FDE6
:102B000005C02FEF3FEF358724870BC0CE0101961C
:102B10000E949811019719F4898190E002C08FEF0B
:102B20009FEF0F90DF91CF9108950E94D51C1F93C6
:102B3000CF93DF93282F30E0F901E955F94F8491C5
:102B4000F901E852FA4FD491F901EB5FF94FC491C2
:102B5000CC23C9F0162F81110E94C414EC2FF0E091
:102B6000EE0FFF1FE950FA4FA591B4918FB7F8947B
:102B7000111105C09C91ED2FE095E92302C0EC9165
:102B8000ED2BEC938FBFDF91CF911F910895CF93E1
:102B9000DF9390E0FC01E852FA4F2491FC01EB5FD7
:102BA000F94F8491882361F190E0880F991FFC010F
:102BB000E653FA4FC591D491FC01E950FA4FA59123
:102BC000B491611109C09FB7F89488812095822340
:102BD0008883EC912E230BC0623061F49FB7F89488
:102BE0003881822F809583238883EC912E2B2C9320
:102BF0009FBF06C08FB7F894E8812E2B28838FBF24
:102C0000DF91CF9108958F929F92AF92BF92CF9212
:102C1000DF92EF92FF926B017C010E942A154B011B
:102C20005C01C114D104E104F104F1F00E942A1501
:102C3000DC01CB0188199909AA09BB09883E934098
:102C4000A105B10570F321E0C21AD108E108F1082D
:102C500088EE880E83E0981EA11CB11CC114D1041B
:102C6000E104F10419F7DDCFFF90EF90DF90CF90F2
:102C7000BF90AF909F908F9008958F929F92AF9248
:102C8000BF92CF92DF92EF92FF920F931F93CF9359
:102C9000DF935C016B017A0180910C01882309F4B8
:102CA0005BC08091FF05882309F456C08091FC0524
:102CB00080FF05C08091E00082608093E000E70122
:102CC00010E00AEF83E0882E9AE3992E2097D9F13D
:102CD0000E94C21181110AC0015009F43DC061E097
:102CE00070E080E090E00E940316F0CF282F30E0E3
:102CF000C217D3070CF48C2F4FB7F8948092E900D9
:102D00009091E80095FF1DC0282F30E0C21BD30B27
:102D1000F601982F915020F081918093F100FACF25
:102D2000C20ED31E112319F09092E80009C08091C1
:102D3000E80085FD06C09092E80011E0209709F0B8
:102D400010E04FBFC3CF1111C3CF5D9884E68093CD
:102D5000FD051E141F0444F081E090E0F50193830B
:102D6000828380E090E001C0C701DF91CF911F9185
:102D70000F91FF90EF90DF90CF90BF90AF909F901A
:102D80008F9008951F920F920FB60F9211242F93D8
:102D90003F938F939F93AF93BF938091F60690914B
:102DA000F706A091F806B091F9063091F50623E0F8
:102DB000230F2D3720F40196A11DB11D05C026E873
:102DC000230F0296A11DB11D2093F5068093F606F0
:102DD0009093F706A093F806B093F9068091FA064F
:102DE0009091FB06A091FC06B091FD060196A11DF5
:102DF000B11D8093FA069093FB06A093FC06B09356
:102E0000FD06BF91AF919F918F913F912F910F90B0
:102E10000FBE0F901F901895CF92DF92EF92FF9206
:102E20000F931F93CF93DF932FB7F894C090F606BC
:102E3000D090F706E090F806F090F9062FBFFC015D
:102E4000428153816481758197018601041B150BB2
:102E5000260B370B063011052105310508F485C016
:102E6000EC0181818F70F1F480810E94011529812C
:102E7000892B11F0206101C02F7E29831981107FD9
:102E8000EE81FF81309719F0103609F40995E88535
:102E9000F985309719F0103909F409958981807FF7
:102EA00081605EC08130F1F480810E94011529812A
:102EB000892B11F0206201C02F7D29831981107F99
:102EC000EE81FF81309719F0103C09F40995E885EF
:102ED000F985309719F0103309F409958981807FBD
:102EE00082603EC08230F1F480810E940115298108
:102EF000892B11F0206401C02F7B29831981107F59
:102F0000EE81FF81309719F0103909F40995E885B1
:102F1000F985309719F0103609F409958981807F79
:102F200083601EC08330E9F480810E9401152981ED
:102F3000892B11F0206801C02F7729831981107F18
:102F4000EE81FF81309719F0103309F40995E88577
:102F5000F985309719F0103C09F409958981807F33
:102F60008983CA82DB82EC82FD82DF91CF911F913F
:102F70000F91FF90EF90DF90CF900895CF92DF9266
:102F8000EF92FF920F931F93CF93DF931F92CDB7D2
:102F9000DEB7182F062FE42E862F880F8E5F9983B9
:102FA0000E94690F83E00E94690FF12EC12E998162
:102FB000D92E8C2D8F19801798F4F601E7FE02C0E8
:102FC000849101C080810E94690F182F80E00E94C7
:102FD000690F8123FFEFCF1ADF0A8111EACF01C009
:102FE00081E00F90DF91CF911F910F91FF90EF90B3
:102FF000DF90CF900895CF93DF9300D000D000D022
:10300000CDB7DEB7789484B5826084BD84B5816025
:1030100084BD85B5826085BD85B5816085BD8091A3
:103020006E00816080936E0010928100809181001B
:103030008260809381008091810081608093810013
:1030400080918000816080938000809191008260F7
:103050008093910080919100816080939100809194
:1030600090008160809390008091C1008460809383
:10307000C1008091C10082608093C1008091C10035
:1030800081608093C1008091C30081608093C30000
:103090008091C00082608093C0008091C2008160F6
:1030A0008093C20080917A00846080937A0080913E
:1030B0007A00826080937A0080917A0081608093A8
:1030C0007A0080917A00806880937A001092FF05E0
:1030D0001092FB051092FC058091D70081608093CF
:1030E000D70080EA8093D80089B5806189BD89B511
:1030F000826089BD09B400FEFDCF61E070E080E030
:1031000090E00E9403168091D8008F7C80618093AC
:10311000D8008091E000807F8093E0008091E10002
:103120008E7E8093E1008DE08093E200559A209A94
:10313000EEEFFFE7859194918B3F9C4D19F481E070
:103140008093FA0562E087E00E94C71561E08AE09B
:103150000E94C71561E08AE00E9497158FEF9FEFEC
:10316000909357068093560682E08093C1068CE3C5
:103170008093C0068091C2068F3F09F4BDC061E014
:103180008091C4060E94C71561E08091C6060E9426
:10319000C7158091C606082E000C990BFC01EB5F49
:1031A000F94FE491F0E0EE0FFF1FE950FA4F25913F
:1031B00034913093CD062093CC06FC01E852FA4FAF
:1031C000E491E093D2068091C406082E000C990B7E
:1031D000FC01EB5FF94FE491F0E0EE0FFF1FE950C7
:1031E000FA4F259134913093CF062093CE06FC01FF
:1031F000E852FA4FE491E093D3068091C70681111B
:103200003EC061E08091C2060E94C71561E08091D6
:10321000C3060E94C7158091C306082E000C990BA7
:10322000FC01EB5FF94FE491F0E0EE0FFF1FE95076
:10323000FA4F259134913093CB062093CA06FC01B6
:10324000E852FA4FE491E093D1068091C206082E2D
:10325000000C990BFC01EB5FF94FE491F0E0EE0FED
:10326000FF1FE950FA4F259134913093C9062093FE
:10327000C806FC01E852FA4FE491E093D006809131
:10328000C706882309F45FC0FFB6F8948091F4055F
:10329000811127C0E6E1F6E08491E9EEF5E0949132
:1032A000E82FF0E0EE0FFF1FE653FA4FA591B4911F
:1032B000EC91E92321F461E081E10E94971561E03E
:1032C00081E10E94C7158CB580618CBD8CB580648E
:1032D0008CBD61E08FE00E94C71561E080E10E9433
:1032E000C7158091F4058F5F8093F405FFBE80E5DC
:1032F0008CBD81E08DBD27C01092EC051092EB05CE
:1033000010922806109249061092260681E08093BA
:1033100025061092000661E082E00E94971561E0A8
:1033200083E00E9497158091B9008E7F8093B90049
:103330008091B9008D7F8093B90088E48093B800B4
:1033400085E48093BC008091C50687FD1EC061E0C6
:103350000E94C71561E08091C5060E94971561E043
:1033600070E080E090E00E94031660E08091C50666
:103370000E9497156AE070E080E090E00E940316DA
:1033800061E08091C5060E9497158EEA0E94BB10ED
:1033900085ED0E94BB1080E80E94BB1088EA0E9465
:1033A000BB108FE30E94BB1083ED0E94BB1080E036
:1033B0000E94BB1080E40E94BB108DE80E94BB10ED
:1033C00084E10E94BB1080E20E94BB1080E00E945A
:1033D000BB1081EA0E94BB1088EC0E94BB108AEDF2
:1033E0000E94BB1082E10E94BB1081E80E94BB10CA
:1033F0008FEC0E94BB1089ED0E94BB1081EF0E94F0
:10340000BB108BED0E94BB1080E40E94BB1084EACD
:103410000E94BB1086EA0E94BB108EE20E94BB1085
:103420008FEA0E94BB1080E094E0EDE0F1E0DF0164
:103430009C011D9221503040E1F70E940411E0915F
:103440000001F0E0E45EFA4F808190E090938B0001
:1034500080938A0080E590E09093870080938600B7
:1034600080918000806280938000809180008061E4
:1034700080938000809181008061809381008091A1
:1034800081008860809381008091800082608093B9
:103490008000809180008E7F8093800080918100E9
:1034A0008B7F809381008091810082608093810076
:1034B000809181008E7F8093810080916F00816078
:1034C00080936F0080916A00806280936A0080918F
:1034D0006A00806180936A00EE9A87ED9EE0909387
:1034E000E5068093E40680EC9EE09093DB068093F3
:1034F000DA0662E08091DE060E94C71562E08091E4
:10350000D4060E94C71582E08093BA0681E090E05D
:103510009093B9068093B8069093B7068093B60649
:103520000AE010E01093B3060093B2068FE090E03B
:103530009093B5068093B40683E895E00E948611C7
:103540001093B3060093B20681E290E09093B50623
:103550008093B4068DE895E00E9486110E940411C4
:103560000E94750ECE0101965C0188E3282E312C55
:1035700097E8492E512C20E0622E20E0722E8EED2D
:1035800096E00E940C1784ED96E00E940C17809143
:10359000F305882309F450C01092F305C12CD12CF7
:1035A000812C912CF601E251FA4F8081880E911CFA
:1035B0009FEFC91AD90AA5E0CA16D10499F7E12CE0
:1035C000F12C00E110E02CE330E04FE050E06AE342
:1035D00070E086EA96E00E94D80A8AE390E0909331
:1035E000B3068093B2068FE090E09093B506809387
:1035F000B406F50126E011922A95E9F73EE1389DDF
:10360000C001399D900D1124B6010E94A71C7F9323
:103610006F93A7E9B5E0BF93AF93BF92AF920E94BB
:10362000DA1CC5010E9486110E9404110F900F90B0
:103630000F900F900F900F908091ED05882309F463
:103640001AC11092ED0500E010E020E830E040E003
:1036500050E060E070E086EA96E00E94E80420E82E
:1036600030E041E050E060E070E086EA96E00E94E1
:10367000E80420E830E04EE350E060E070E086EAE5
:1036800096E00E94E80420E830E04FE350E060E07C
:1036900070E086EA96E00E94E8042CE330E042E025
:1036A00050E060E070E086EA96E00E948E032CE332
:1036B00030E042E050E061E070E086EA96E00E948F
:1036C0008E032CE330E042E050E06EE770E086EAE3
:1036D00096E00E948E032CE330E042E050E06FE77A
:1036E00070E086EA96E00E948E03F090F505FF0CEC
:1036F000F7E0FF1508F050C08F2C912C640127E0F3
:10370000C21AD10801E010E0960140E050E060E00C
:1037100070E086EA96E00E94E804960141E050E0FD
:1037200060E070E086EA96E00E94E804C201881931
:1037300099094C0196014EE350E0BC0186EA96E0FF
:103740000E94E80496014FE350E0B40186EA96E057
:103750000E94E804960140E050E06EE770E086EADF
:1037600096E00E948E03960140E050E06FE770E023
:1037700086EA96E00E948E039601A60160E070E062
:1037800086EA96E00E948E039601A60161E070E051
:1037900086EA96E00E948E039F2C97FC30C0C92CCD
:1037A000D12C01E010E028E030E040E050E0B6012C
:1037B00086EA96E00E94E80428E030E041E050E02C
:1037C000B60186EA96E00E94E804A8E7B0E0AC19EA
:1037D000BD096D0128E030E04EE350E0BD0186EA0E
:1037E00096E00E94E80428E030E04FE350E0B601A4
:1037F00086EA96E00E94E804B0E19B0ECECF2FE36C
:103800002F1578F1CF2CD12C01E010E028E030E02A
:10381000A6016EE770E086EA96E00E948E0328E03B
:1038200030E0A6016FE770E086EA96E00E948E0322
:10383000F101EC19FD096F0128E030E0AF0160E013
:1038400070E086EA96E00E948E0328E030E0A60150
:1038500061E070E086EA96E00E948E03F0E1FF0EE0
:10386000CECF0E9404118091F50590E001968770FB
:1038700099278093F5056114710409F480CE0E94A4
:1038800000007DCEEAE4F6E01382128248EE53E0B7
:1038900060E070E0448355836683778383E395E03B
:1038A000918380838FEF9FEF95878487EAE9F6E025
:1038B00013821282448355836683778325E435E03F
:1038C00031832083EEEDF6E022E1208320EF218397
:1038D0001282138214821582178216821186108634
:1038E000E4EDF6E033E13083218312821382148207
:1038F00015821782168211861086E6EAF6E0138298
:10390000128240E850E05583448320E430E037835E
:1039100026835187408733872287158A1586148628
:103920001786168621E0248B938B828B918B808B5C
:10393000268B178A118E108E87E595E09183808300
:103940008FEF848F80A3868F858F878F0895AA1B22
:10395000BB1B51E107C0AA1FBB1FA617B70710F07A
:10396000A61BB70B881F991F5A95A9F780959095AC
:10397000BC01CD01089597FB072E16F4009407D0E3
:1039800077FD09D00E94A71C07FC05D03EF4909556
:1039900081959F4F0895709561957F4F0895EE0F23
:1039A000FF1F0590F491E02D099481E090E0F894D8
:1039B0000C94B21FAEE0B0E0E0EEFCE10C94891F85
:1039C0000D891E8986E08C831A8309838FEF9FE718
:1039D0009E838D83AE01475E5F4F6F89788DCE01E8
:1039E00001960E94FD1C2F813885F801E20FF31F1C
:1039F00010822E96E4E00C94A51FACE0B0E0E3E06A
:103A0000FDE10C947B1F7C016B018A01FC01178294
:103A10001682838181FFBDC1CE0101964C01F70161
:103A20009381F60193FD859193FF81916F01882326
:103A300009F4ABC1853239F493FD859193FF8191EF
:103A40006F01853229F4B70190E00E94E51EE7CFAF
:103A5000512C312C20E02032A0F48B3269F030F46C
:103A6000803259F0833269F420612CC08D3239F0F4
:103A7000803339F4216026C02260246023C028608E
:103A800021C027FD27C030ED380F3A3078F426FFEB
:103A900006C0FAE05F9E300D1124532E13C08AE059
:103AA000389E300D1124332E20620CC08E3221F44A
:103AB00026FD6BC1206406C08C3611F4206802C05C
:103AC000883641F4F60193FD859193FF81916F0152
:103AD0008111C1CF982F9F7D9554933028F40C5FAE
:103AE0001F4FFFE3F9830DC0833631F0833771F048
:103AF000833509F05BC022C0F801808189830E5FA5
:103B00001F4F44244394512C540115C03801F2E056
:103B10006F0E711CF801A080B18026FF03C0652DD7
:103B200070E002C06FEF7FEFC5012C870E94DA1EA4
:103B30002C0183012C852F77222E17C03801F2E04B
:103B40006F0E711CF801A080B18026FF03C0652DA7
:103B500070E002C06FEF7FEFC5012C870E94CF1E7F
:103B60002C012C852068222E830123FC1BC0832D71
:103B700090E048165906B0F4B70180E290E00E9448
:103B8000E51E3A94F4CFF50127FC859127FE81913B
:103B90005F01B70190E00E94E51E31103A94F1E018
:103BA0004F1A51084114510471F7E5C0843611F0E1
:103BB000893639F5F80127FF07C06081718182815C
:103BC00093810C5F1F4F08C060817181072E000C2C
:103BD000880B990B0E5F1F4F2F76722E97FF09C02F
:103BE00090958095709561957F4F8F4F9F4F20687E
:103BF000722E2AE030E0A4010E941D1FA82EA818F2
:103C000044C0853729F42F7EB22E2AE030E025C04B
:103C1000F22FF97FBF2E8F36C1F018F4883579F076
:103C2000B4C0803719F0883721F0AFC02F2F206142
:103C3000B22EB4FE0DC08B2D8460B82E09C024FFB7
:103C40000AC09F2F9660B92E06C028E030E005C05C
:103C500020E130E002C020E132E0F801B7FE07C009
:103C600060817181828193810C5F1F4F06C06081EA
:103C7000718180E090E00E5F1F4FA4010E941D1F24
:103C8000A82EA818FB2DFF777F2E76FE0BC0372DB0
:103C90003E7FA51450F474FE0AC072FC08C0372D94
:103CA0003E7E05C0BA2C372D03C0BA2C01C0B52CFE
:103CB00034FF0DC0FE01EA0DF11D8081803311F447
:103CC000397E09C032FF06C0B394B39404C0832F79
:103CD000867809F0B39433FD13C030FF06C05A2C28
:103CE000B31418F4530C5B18B32CB31468F4B70175
:103CF00080E290E03C870E94E51EB3943C85F5CFBE
:103D0000B31410F43B1801C0312C34FF12C0B701BA
:103D100080E390E03C870E94E51E3C8532FF17C09F
:103D200031FD03C088E790E002C088E590E0B7016C
:103D30000CC0832F867859F031FF02C08BE201C09E
:103D400080E237FD8DE2B70190E00E94E51EA514E8
:103D500038F4B70180E390E00E94E51E5A94F7CF53
:103D6000AA94F401EA0DF11D8081B70190E00E9450
:103D7000E51EA110F5CF332009F451CEB70180E242
:103D800090E00E94E51E3A94F6CFF7018681978174
:103D900002C08FEF9FEF2C96E2E10C94971FFC017D
:103DA0000590615070400110D8F7809590958E0F66
:103DB0009F1F0895FC016150704001900110D8F7D9
:103DC000809590958E0F9F1F08950F931F93CF930B
:103DD000DF93FB01238121FD03C08FEF9FEF28C0FC
:103DE00022FF16C04681578124813581421753072F
:103DF00044F4A081B1819D012F5F3F4F3183208327
:103E00008C93268137812F5F3F4F3783268310C0E5
:103E1000EB01092F182F0084F185E02D0995892BDE
:103E2000E1F68E819F8101969F838E83812F902F53
:103E3000DF91CF911F910F910895FA01AA272830A1
:103E400051F1203181F1E8946F936E7F6E5F7F4F67
:103E50008F4F9F4FAF4FB1E03ED0B4E03CD0670FE3
:103E6000781F891F9A1FA11D680F791F8A1F911D36
:103E7000A11D6A0F711D811D911DA11D20D009F486
:103E800068943F912AE0269F11243019305D3193C8
:103E9000DEF6CF010895462F4770405D4193B3E0B1
:103EA0000FD0C9F7F6CF462F4F70405D4A3318F058
:103EB000495D31FD4052419302D0A9F7EACFB4E009
:103EC000A6959795879577956795BA95C9F70097C1
:103ED0006105710508959B01AC010A2E0694579562
:103EE000479537952795BA95C9F7620F731F841FB9
:103EF000951FA01D08952F923F924F925F926F924F
:103F00007F928F929F92AF92BF92CF92DF92EF9269
:103F1000FF920F931F93CF93DF93CDB7DEB7CA1BEA
:103F2000DB0B0FB6F894DEBF0FBECDBF09942A8815
:103F3000398848885F846E847D848C849B84AA84BD
:103F4000B984C884DF80EE80FD800C811B81AA814A
:103F5000B981CE0FD11D0FB6F894DEBF0FBECDBF15
:083F6000ED010895F894FFCF74
:103F680001FFFFFFFF00E10000000000000000006B
:103F78000000000000000000000000000000000039
:103F88000000000000000000000000000000000029
:103F98000000000000000000000000000000000019
:103FA8000000000000000000000000008080800089
:103FB80000000000000000000000000000008080F9
:103FC800C0C0000000000000000000000000000069
:103FD80000000000000000000000000000000000D9
:103FE80000000000000000000000000000000000C9
:103FF80000000000000000000000000000000000B9
:104008000080C0E0F0F8FCF8E000000000000000CC
:104018000000000000000000000080808080800018
:10402800808000000000808080808000FFFFFF000B
:104038000000008080808000008080000080FFFFFA
:104048008080008080008080808000808000000068
:104058000000808000008C8E84000080F8F8F880D2
:1040680000000000000000000000000000F0F0F078
:10407800F0F0F0F0F0F0F0F0F0E0E0C08000E0FCEC
:10408800FEFFFFFF7FFFFFFFFFFF000000000000B3
:104098000000000000000000FEFFC70101010183CD
:1040A800FFFF00007CFEC70101010183FFFFFF0045
:1040B80038FEC78301010183C7FFFF000001FFFF2E
:1040C800010100FFFF0701010100007FFF800000E0
:1040D80000FFFF7F0000FFFFFF000001FFFFFF015F
:1040E80000000000000000000000000000030F3F77
:1040F8007F7FFFFFFFFFFFFFFFE7C7C78F8F9FBFD0
:10410800FFFFC3C0F0FFFFFFFFFFFCFCFCFCFCFC53
:10411800FCFCF8F8F0F0E0C000010303030303011E
:10412800030300000000010303030301010301006E
:10413800000001030303030101030300000003035C
:104148000000000303000000000000000103030357
:104158000303010000000103010000000303010044
:104168000000000000000000000000000000000047
:1041780080C0E0F0F9FFFFFFFFFF3F1F0F87C7F781
:10418800FFFF1F1F3DFCF8F8F8F87C7DFFFFFFFFDD
:10419800FFFFFFFF7F3F0F070030300000000000E7
:1041A8000000000000000000000000000000000007
:1041B80000FEFEFC000000000000000000000000FF
:1041C80000000000000000000000E0C00000000047
:1041D8000000000000000030300000000000000077
:1041E8000000000000000000000000000000C0FE09
:1041F800FFFFFFFFFFFFFFFFFF7F7F3F1F0F071F2F
:104208007FFFFFF8F8FFFFFFFFFFFEF8E000000068
:10421800010000000000000000FEFE000000FCFE9F
:10422800FC0C06060EFCF80000F0F81C0E0606064C
:104238000CFFFFFF0000FEFE00000000FCFEFC007B
:10424800183C7E66E6CE84000006FFFF0606FCFEEC
:10425800FC0C0606060000FEFE0000C0F8FC4E46F8
:1042680046464E7C7840183C76E6CECC800000006E
:104278000000000000000000000000000000000036
:104288000001070F1F1F3F3F3F3F1F0F03000000A4
:104298000000000000000000000F0F0000000F0FDA
:1042A8000F000000000F0F000003070E0C18180C79
:1042B800060F0F0F0000010F0E0C180C0F0701005E
:1042C800040E0C180C0F070000000F0F00000F0F52
:1042D8000F0000000000000F0F00000007070C0C83
:1042E800181C0C060600040E0C180C0F0700000022
:1042F80000000000000000000000000000000000B6
:1043080000000000000000000000000000000000A5
:104318000000000000000000000000000000000095
:104328000000000000000000000000000000000085
:104338000000000000000000000000000000000075
:104348000000000000000000000000000000000065
:104358000000000000000000000000000000000055
:104368000000000000000000000000000000010341
:10437800070F1F3F7F0080C0E0F0F8FCFE00081028
:10438800182028303840485000C1808100000000C3
:1043980000000089143D164F159F14AA1477155371
:1043A8001500000000140DE40C440DBE0CDC0CCD0F
:1043B8000CBF0C000000000E09970F440D430D447C
:1043C80006E10BDA0BB20BCE0BC20BE20BB10BE31F
:1043D80006E2068E03E804D80ABA0A430AE4092565
:1043E80032640052504D3A2020202030005350446F
:0C43F8003A20202F3130002535640000F1
:00000001FF
