:100000000C94DD000C9405010C9405010C94050181
:100010000C9405010C9405010C9405010C94050148
:100020000C9405010C9405010C944E040C94C0042E
:100030000C9405010C9405010C9405010C94050128
:100040000C9405010C9405010C9405010C94050118
:100050000C9405010C9405010C9405010C94F00618
:100060000C9405010C9405010C9405010C940501F8
:100070000C9405010C9405010C9405010C940501E8
:100080000C9405010C9405010C9405010C940501D8
:100090000C9405010C9405010C9405010C940501C8
:1000A0000C9405010C9405010C940501960899081F
:1000B00088088C089008BA08BA08BA089D08A108F0
:1000C000A508AB08AF08BA08B50800000000240076
:1000D00027002A002D003000000000002500280025
:1000E0002B002E0031000404040404030405020262
:1000F00002020403020202020606060606060404C1
:100100000202020404040802011040804010204052
:1001100080408008020401804020100201108010FD
:10012000204040200000000200090F0000030401ED
:10013000000C0000000000000000000000000000B3
:10014000000000080B000202020100090400000187
:10015000020200000524001001052401010104240D
:10016000020605240600010705810310004009046A
:100170000100020A00000007050202400000070516
:1001800083024000000403090412010002EF02018F
:100190004041233680000101020301417264756908
:1001A0006E6F204C4C430041726475696E6F204C39
:1001B000656F6E6172646F003A0711241FBECFEF46
:1001C000DAE0DEBFCDBF22E0ACE4B1E001C01D92B9
:1001D000AB30B207E1F711E0A0E0B1E0ECE3F4E10D
:1001E00002C005900D92AC34B107D9F710E0CDED07
:1001F000D0E004C02197FE010E94110ACC3DD10736
:10020000C9F70E9461070C941C0A0C940000FC01C1
:1002100080917201811103C08FEF9FEF08959FB706
:10022000F89482E08093E9002091F20030E0121609
:10023000130614F421E030E02115310559F0289817
:1002400084E6809371018091F10080838091F200B7
:10025000882319F09FBFC90108958BE68093E800B9
:10026000F9CF2FB7F89483E08093E9009091E800EC
:10027000892F807295FF04C09091F20080E4891B61
:100280002FBF08958091690181110DC082E0809394
:10029000650184E080936601109268011092670105
:1002A00081E08093690185E691E0089540915F01C6
:1002B0005091600120915D0130915E01421753071A
:1002C000B4F49091E8009570E1F39091E80092FD0C
:1002D00019C08093F10080915F01909160010196B7
:1002E0008F739927892B19F48EEF8093E800809102
:1002F0005F019091600101969093600180935F018E
:1003000081E0089580E00895CF92DF92EF92FF920E
:100310000F931F93CF93DF931F92CDB7DEB7182FA4
:10032000062FE42E862F880F8E5F99830E94560138
:1003300083E00E945601F12EC12E9981D92E8C2D79
:100340008F19801798F4F601E7FE02C0849101C06E
:1003500080810E945601182F80E00E94560181235F
:10036000FFEFCF1ADF0A8111EACF01C081E00F90C1
:10037000DF91CF911F910F91FF90EF90DF90CF9081
:100380000895DF92EF92FF920F931F93CF93DF9325
:10039000D82E8A017B01E40EF51EEB01CE15DF0598
:1003A00071F0D7FE03C0FE01849101C088810E94D4
:1003B000560121968111F2CF8FEF9FEF01C0C80146
:1003C000DF91CF911F910F91FF90EF90DF900895F3
:1003D0000F931F93CF93DF931F92CDB7DEB782E0C9
:1003E000898342E450E063E471E080E80E94C10147
:1003F0000E944201DC0112960D911C911397011588
:10040000110569F0D801ED91FC910280F381E02D96
:10041000BE016F5F7F4FC801099597FF07C08981B3
:100420000F90DF91CF911F910F910895F8010085F2
:100430001185E5CF615030F02091F100FC0120835F
:100440000196F8CF289884E6809371010895CF92A1
:10045000DF92EF92FF920F931F93CF93DF936C0184
:100460007A018B01C0E0D0E0CE15DF0589F0D8011C
:100470006D918D01D601ED91FC910190F081E02DFF
:10048000C6010995892B11F47E0102C02196ECCF9B
:10049000C701DF91CF911F910F91FF90EF90DF90F7
:1004A000CF900895CF93DF931F92CDB7DEB76983C6
:1004B000DC01ED91FC910280F381E02D41E050E000
:1004C000BE016F5F7F4F09950F90DF91CF91089527
:1004D00083E08093E9008091F200882319F08AE399
:1004E0008093E80008950E94310190E00895CF9331
:1004F000DF931F92CDB7DEB7FC018485958597FD0C
:1005000005C02FEF3FEF358724870BC0CE01019642
:100510000E940701019719F4898190E002C08FEFD2
:100520009FEF0F90DF91CF9108950F931F93CF937B
:10053000DF931F92CDB7DEB78C01FC0184859585D2
:1005400097FF0EC0CE0101960E940701019719F492
:10055000298130E002C02FEF3FEFF8013587248773
:10056000F801848595850F90DF91CF911F910F91B0
:100570000895FC018485958597FD0BC09FB7F8947D
:1005800082E08093E9008091F2009FBF90E00196A5
:1005900008959FB7F89482E08093E9008091F2007B
:1005A0009FBF90E00895089580E090E008953FB7E0
:1005B000F8948091510190915201A0915301B09112
:1005C000540126B5A89B05C02F3F19F00196A11D27
:1005D000B11D3FBFBA2FA92F982F8827820F911DD9
:1005E000A11DB11DBC01CD0142E0660F771F881F20
:1005F000991F4A95D1F708958F929F92AF92BF921B
:10060000CF92DF92EF92FF926B017C010E94D702A2
:100610004B015C01C114D104E104F104F1F00E942A
:10062000D702DC01CB0188199909AA09BB09883EC8
:100630009340A105B10570F321E0C21AD108E10889
:10064000F10888EE880E83E0981EA11CB11CC1142D
:10065000D104E104F10419F7DDCFFF90EF90DF90B2
:10066000CF90BF90AF909F908F9008958F929F9260
:10067000AF92BF92CF92DF92EF92FF920F931F93B0
:10068000CF93DF935C016B017A0180910B0188238A
:1006900009F45BC080917201882309F456C08091EF
:1006A000630180FF05C08091E00082608093E000DC
:1006B000E70110E00AEF83E0882E9AE3992E209755
:1006C000D9F10E94310181110AC0015009F43DC0E5
:1006D00061E070E080E090E00E94FC02F0CF282F03
:1006E00030E0C217D3070CF48C2F4FB7F8948092E8
:1006F000E9009091E80095FF1DC0282F30E0C21B53
:10070000D30BF601982F915020F081918093F10046
:10071000FACFC20ED31E112319F09092E80009C03F
:100720008091E80085FD06C09092E80011E02097D6
:1007300009F010E04FBFC3CF1111C3CF5D9884E61D
:10074000809364011E141F0444F081E090E0F501E1
:100750009383828380E090E001C0C701DF91CF9155
:100760001F910F91FF90EF90DF90CF90BF90AF90CF
:100770009F908F9008952FB7F89460914D017091DC
:100780004E0180914F01909150012FBF08958F929B
:100790009F92AF92BF92CF92DF92EF92FF926B0146
:1007A0007C010E94BB034B015C01C60ED71EE81EF4
:1007B000F91E0E94BB03681579058A059B0528F080
:1007C000C616D706E806F906A0F7FF90EF90DF906F
:1007D000CF90BF90AF909F908F9008950E94170A7E
:1007E0006115710579F0FB0101900020E9F731975F
:1007F000AF01461B570BDC01ED91FC910280F381A8
:10080000E02D099480E090E008954F925F926F92FE
:100810007F92EF92FF920F931F93CF93DF93CDB709
:10082000DEB7A1970FB6F894DEBF0FBECDBF7C0137
:10083000FA01CB0119A2223008F42AE08E010F5DE3
:100840001F4F422E512C612C712CBF01A30192012C
:100850000E94EF09F901CA01015011096A3014F42C
:10086000605D01C0695CD8016C93232B242B252B80
:1008700061F7B801C7010E94F003A1960FB6F89482
:10088000DEBF0FBECDBFDF91CF911F910F91FF90C3
:10089000EF907F906F905F904F9008951F920F920E
:1008A0000FB60F9211248F939F938091E100909146
:1008B000E100937F9093E10083FF0FC01092E90065
:1008C00091E09093EB001092EC0092E39093ED0096
:1008D0001092720198E09093F00082FF20C093E0A4
:1008E0009093E9009091F200992319F09AE3909384
:1008F000E80090916401992339F09091640191503E
:1009000090936401992389F190917101992339F0B1
:1009100090917101915090937101992341F184FF5D
:1009200010C08091E2008E7E81608093E200809111
:10093000E1008F7E8093E100809163018E7E806173
:1009400011C080FF16C08091E2008E7E806180938E
:10095000E2008091E1008E7E8093E100809163014E
:100960008E7E81608093630104C05D9ACDCF289A0A
:10097000D6CF9F918F910F900FBE0F901F9018951B
:100980001F920F920FB60F921124CF92DF92EF9227
:10099000FF920F931F932F933F934F935F936F9308
:1009A0007F938F939F93AF93BF93EF93FF93CF93D7
:1009B000DF93CDB7DEB76C97DEBFCDBF1092E900F5
:1009C0008091E80083FFEDC168E0CE0145960E946A
:1009D0001A0282EF8093E8008D8987FF05C090910D
:1009E000E80090FFFCCF03C09EEF9093E800982FA3
:1009F000907609F0C6C09E892F89188D91110CC080
:100A0000803829F4809162018093F10002C0109235
:100A1000F1001092F10048C1422F50E0512B91306B
:100A200051F4811141C14130510509F03DC180911E
:100A300062018D7F0BC0933061F4811135C141306B
:100A4000510509F031C18091620182608093620199
:100A50002BC1953041F48091E80080FFFCCF2068E5
:100A60002093E30021C1963009F05FC0EB8CFC8C31
:100A70001092E9001092600110925F01123091F51E
:100A800010925E0110925D010E94E80199E0BE01A2
:100A90006F5F7F4FDB01E92F1D92EA95E9F799839C
:100AA0001A8391E09E8390EA98879AEF9987209124
:100AB0005F0130916001275F3F4F3C832B838D8323
:100AC0001092E9001092600110925F01F0925E01B5
:100AD000E0925D0149E050E080E00E94C1010E9487
:100AE000E801E2C0F0925E01E0925D010E944201E5
:100AF000DC011296ED90FC901397E114F10409F4D7
:100B0000C0C0D701ED91FC910480F581E02DBE01BC
:100B10006B5E7F4FC7010995009719F00CF0C4C0B8
:100B2000C7C0F701E084F184E8CF973009F4C0C072
:100B3000983021F481E08093F100B6C0993009F03B
:100B4000B3C0837009F0B4C0EDE0F1E081E021E0D2
:100B500036E39081992361F08093E9002093EB00C4
:100B600091919093EC003093ED008F5F873089F77F
:100B70008EE78093EA001092EA008F8980937201D9
:100B800093C08B8D9C8D1092E900109260011092A1
:100B90005F0190935E0180935D01898D811156C044
:100BA0008E899D89913A59F4813209F081C047E0DC
:100BB00050E064E071E080E00E94C10175C09132B4
:100BC00009F076C0833289F4888D90E0982F8827C9
:100BD0002F89822BA0E0B0E0809300019093010167
:100BE000A0930201B09303015FC0803269F4809149
:100BF000E80082FFFCCF67E084E091E00E941A02E7
:100C00008BEF8093E80006C0823209F04DC08F89D7
:100C100080930B0180916101882319F0EEEFFAE0D7
:100C200002C0E0E0F8E08091040190910501A091FC
:100C30000601B0910701803B9440A105B10509F080
:100C40007BC080910B0180FF93C076C00E9442015F
:100C5000DC0112960D911C9113970115110541F1BC
:100C6000D801ED91FC910190F081E02DBE016B5E09
:100C70007F4FC8010995811117C0F80100851185C2
:100C8000ECCF113009F44EC0133091F48F898823D2
:100C900009F445C0823081F440E860E187EA91E0E0
:100CA0000E948401882321F08EEF8093E80079C0B0
:100CB00081E28093EB0075C0813029F440E86BE05D
:100CC0008BE991E0EDCF833099F70E944201DC017E
:100CD0001296ED90FC9013978E010F5F1F4F6801E5
:100CE000E114F10479F0D701ED91FC910680F781D0
:100CF000E02DB801C7010995080F111DF701E08427
:100D0000F184EECFD8011C92F60101900020E9F7A2
:100D10003197BF016C197D0940E0C601C1CF65E87C
:100D200071E002C069E871E06115710509F2FB012B
:100D3000449150E080E840CF0FB6F894A895809198
:100D40006000886180936000109260000FBEA895DB
:100D5000EE3F2AE0F20739F08091FE0A9091FF0AF7
:100D600091838083A1CF1092FF0A1092FE0A9CCF3C
:100D7000EE3F8AE0F80731F0808191819093FF0A7D
:100D80008093FE0A87E797E7918380839BE088E161
:100D90000FB6F894A895809360000FBE9093600002
:100DA00083CF6C960FB6F894DEBF0FBECDBFDF9138
:100DB000CF91FF91EF91BF91AF919F918F917F91D3
:100DC0006F915F914F913F912F911F910F91FF90E4
:100DD000EF90DF90CF900F900FBE0F901F9018955F
:100DE0001F920F920FB60F9211242F933F938F9360
:100DF0009F93AF93BF9380914D0190914E01A0912D
:100E00004F01B091500130914C0123E0230F2D3759
:100E100020F40196A11DB11D05C026E8230F0296FE
:100E2000A11DB11D20934C0180934D0190934E0163
:100E3000A0934F01B09350018091510190915201C4
:100E4000A0915301B09154010196A11DB11D809351
:100E5000510190935201A0935301B0935401BF915B
:100E6000AF919F918F913F912F910F900FBE0F9057
:100E70001F901895E3E7F1E01382128288EE93E069
:100E8000A0E0B0E084839583A683B78387E191E0F7
:100E9000918380838FEF9FEF95878487E3ECF1E068
:100EA000168217821086118612861386148615867E
:100EB00016861786108A118A128A138A148A158A4E
:100EC0000895789484B5826084BD84B5816084BDC2
:100ED00085B5826085BD85B5816085BD80916E00D8
:100EE000816080936E001092810080918100826009
:100EF0008093810080918100816080938100809146
:100F00008000816080938000809191008260809356
:100F10009100809191008160809391008091900078
:100F20008160809390008091C10084608093C100B3
:100F30008091C10082608093C1008091C100816076
:100F40008093C1008091C30081608093C300809131
:100F5000C00082608093C0008091C2008160809355
:100F6000C20080917A00846080937A0080917A0038
:100F7000826080937A0080917A00816080937A0009
:100F800080917A00806880937A00109272011092AA
:100F90006201109263018091D70081608093D70035
:100FA00080EA8093D80089B5806189BD89B5826067
:100FB00089BD09B400FEFDCF61E070E080E090E003
:100FC0000E94FC028091D8008F7C80618093D800C1
:100FD0008091E000807F8093E0008091E1008E7E30
:100FE0008093E1008DE08093E200559A209AEEEF25
:100FF000FFE7859194918B3F9C4D19F481E080939C
:1010000061011092070210920802109209021092D8
:101010000A021092C5011092C6011092C7011092E7
:10102000C80168EB7BE080E090E00E94C70383E7A3
:1010300091E09093060280930502CBE1D0E0F0901E
:101040000B016AE070E080E090E00E94FC02F11089
:1010500009C0219739F064E670E080E090E00E94DA
:10106000FC02EDCFE0910502F09106028FEF9FEFB9
:10107000958784870E94BB036093C5017093C60166
:101080008093C7019093C80165E271E080910502E9
:10109000909106020E94F0036AE070E080E090E028
:1010A0000E94C70381E08093D9014FE051E0FA012B
:1010B000649120EF30E0F9018491882399F090E069
:1010C000880F991FFC01E653FF4FA591B4918852F8
:1010D0009F4FFC01C591D4918FB7F8949C91692BD7
:1010E0006C938FBFEEE2F1E08491FA014491F90133
:1010F0002491222309F44CC08823E1F190E0FC0103
:101100003197EF30F105B0F5EA5AFF4F0C94110A10
:10111000809180008F7707C0809180008F7D03C011
:1011200080918000877F8093800024C084B58F7772
:1011300002C084B58F7D84BD1DC0809190008F77E3
:1011400007C0809190008F7D03C080919000877FC1
:10115000809390000FC08091C0008F7703C0809172
:10116000C0008F7D8093C00005C08091C200877F42
:101170008093C200E22FF0E0EE0FFF1FE852FF4F16
:10118000A591B4918FB7F8949C91492B4C938FBF44
:10119000C0E0D0E084EF882E99249394A12CB12C48
:1011A0000E94BB03672B682B692B41F40E94BB0391
:1011B000623071058105910508F40BC10E94BB03E3
:1011C0006093590170935A0180935B0190935C0185
:1011D000C0905501D0905601E0905701F090580111
:1011E0006C157D058E059F0540F460935501709345
:1011F00056018093570190935801C0905501D090AB
:101200005601E0905701F09058019B01AC012C1958
:101210003D094E095F0969017A013AEFC316D1040D
:10122000E104F10408F4D5C06093550170935601B0
:1012300080935701909358018092D1019092D201EE
:10124000A092D301B092D4011092D5011092D60190
:101250001092D7011092D8018091C9019091CA01D2
:10126000A091CB01B091CC018093CD019093CE01A0
:10127000A093CF01B093D0010E94BB036093C9013A
:101280007093CA018093CB019093CC010E94BB0361
:101290006093C5017093C6018093C7019093C80104
:1012A0000E94BB036B017C0167E371E08091050242
:1012B000909106020E94F0032AE041E050E060E0D5
:1012C00070E080910502909106020E9405046EE391
:1012D00071E080910502909106020E94F0032AE0DD
:1012E000B701A60180910502909106020E940504B3
:1012F00060E471E080910502909106020E94F00383
:101300008091C9019091CA01A091CB01B091CC010B
:10131000B701A601481B590B6A0B7B0B2AE0809191
:101320000502909106020E94050460E471E080913C
:101330000502909106020E94F0034091C90150916C
:10134000CA016091CB017091CC018091CD01909147
:10135000CE01A091CF01B091D001481B590B6A0B6F
:101360007B0B2AE080910502909106020E94050401
:1013700062E471E080910502909106020E94F00300
:101380000E94BB03AB01BC012AE080910502909151
:1013900006020E940504E0900502F090060264E453
:1013A00071E0C7010E94F00364E371E0C7010E948D
:1013B000F00365E070E080E090E00E94C7030E94C7
:1013C000BB036093C9017093CA018093CB019093D2
:1013D000CC01209709F4E4CE0E940000E1CEA1E206
:1013E0001A2EAA1BBB1BFD010DC0AA1FBB1FEE1F9F
:1013F000FF1FA217B307E407F50720F0A21BB30BEA
:10140000E40BF50B661F771F881F991F1A9469F765
:1014100060957095809590959B01AC01BD01CF01C1
:101420000895EE0FFF1F0590F491E02D099481E0DF
:0C14300090E0F8940C941C0AF894FFCF94
:10143C00FFFFFFFF00E100000000000000C1808101
:10144C00000000000000005202360373026802B96B
:10145C000277029502564D4450565F317C315F56EF
:10146C004D4450560D0A00564D4450455F003A32DB
:0C147C003A007C005F564D4450450000D3
:00000001FF
