:100000000C94E4000C940C010C940C010C940C0165
:100010000C94D1080C940C010C940C010C940C0160
:100020000C940C010C940C010C944C030C94BE0326
:100030000C940C010C940C010C940C010C940C010C
:100040000C940C010C940C010C940C010C940C01FC
:100050000C940C010C940C010C940C010C9487086A
:100060000C940C010C940C010C940C010C940C01DC
:100070000C940C010C940C010C940C010C940C01CC
:100080000C940C010C940C010C940C010C940C01BC
:100090000C940C010C940C010C940C010C940C01AC
:1000A0000C940C010C940C010C940C01060609062E
:1000B000F805FC0502062A062A062A060D06110680
:1000C00015061B061F062A062506080B000202025B
:1000D00001000904000001020200000524001001D3
:1000E0000524010101042402060524060001070578
:1000F000810310004009040100020A000000070506
:1001000002024000000705830240000004030904C6
:1001100012010002EF02014041233680000101027A
:10012000030141726475696E6F204C4C430041724B
:100130006475696E6F204C656F6E6172646F00004C
:10014000000000240027002A002D003000000000DD
:1001500000250028002B002E0031000000000023A5
:1001600000260029002C002F0004040404040304CA
:100170000502020202040302020202060606060645
:100180000604040202020404040802011040804034
:1001900010204080408008020401804020100201AD
:1001A000108010204040200000000200090F0000D5
:1001B000030401000C00000000000000000000002B
:1001C000000000000000F80811241FBECFEFDAE0A5
:1001D000DEBFCDBF11E0A0E0B1E0E2EEF7E102C08A
:1001E00005900D92A632B107D9F721E0A6E2B1E061
:1001F00001C01D92A03DB207E1F710E0C4EED0E0CF
:1002000004C02197FE010E94E40BC33ED107C9F749
:100210000E945B090C94EF0B0C940000FC01809190
:100220002E01811103C08FEF9FEF08959FB7F894BF
:1002300082E08093E9002091F20030E0121613066C
:1002400014F421E030E02115310559F0289884E6B6
:1002500080932D018091F10080838091F2008823AA
:1002600019F09FBFC90108958BE68093E800F9CF8C
:100270002FB7F89483E08093E9009091E800892FEC
:10028000807295FF04C09091F20080E4891B2FBF1B
:100290000895CF92DF92EF92FF920F931F93CF9327
:1002A000DF936C017A018B01C0E0D0E0CE15DF0551
:1002B00089F0D8016D918D01D601ED91FC910190ED
:1002C000F081E02DC6010995892B11F47E0102C051
:1002D0002196ECCFC701DF91CF911F910F91FF9035
:1002E000EF90DF90CF9008958091540181110DC05F
:1002F00082E08093500184E0809351011092530179
:100300001092520181E08093540180E591E00895BC
:10031000CF93DF931F92CDB7DEB76983DC01ED91F8
:10032000FC910280F381E02D41E050E0BE016F5F5F
:100330007F4F09950F90DF91CF91089583E08093CF
:10034000E9008091F200882319F08AE38093E800A5
:1003500008950E94380190E00895CF93DF931F9293
:10036000CDB7DEB7FC018485958597FD05C02FEFDD
:100370003FEF358724870BC0CE0101960E940E0106
:10038000019719F4898190E002C08FEF9FEF0F90E1
:10039000DF91CF9108950F931F93CF93DF931F9217
:1003A000CDB7DEB78C01FC018485958597FF0EC023
:1003B000CE0101960E940E01019719F4298130E0C7
:1003C00002C02FEF3FEFF80135872487F8018485BD
:1003D00095850F90DF91CF911F910F910895FC01AA
:1003E0008485958597FD0BC09FB7F89482E0809334
:1003F000E9008091F2009FBF90E0019608959FB7B9
:10040000F89482E08093E9008091F2009FBF90E031
:100410000895089580E090E008950E94EA0BCF923D
:10042000DF92EF92FF920F931F93CF93DF931F9270
:10043000CDB7DEB7182F062FE42E862F880F8E5FDC
:1004400099830E94270883E00E942708F12EC12E7D
:100450009981D92E8C2D8F19801798F4F601E7FE1B
:1004600002C0849101C080810E942708182F80E07B
:100470000E9427088123FFEFCF1ADF0A8111EACFFC
:1004800001C081E00F90DF91CF911F910F91FF90FC
:10049000EF90DF90CF900895DF92EF92FF920F934D
:1004A0001F93CF93DF93D82E8A017B01E40EF51EB4
:1004B000EB01CE15DF0571F0D7FE03C0FE0184917C
:1004C00001C088810E94270821968111F2CF8FEF09
:1004D0009FEF01C0C801DF91CF911F910F91FF9055
:1004E000EF90DF9008950F931F93CF93DF931F92A8
:1004F000CDB7DEB782E0898342E450E06AEC70E079
:1005000080E80E944C020E947401DC0112960D9159
:100510001C9113970115110569F0D801ED91FC911B
:100520000280F381E02DBE016F5F7F4FC801099506
:1005300097FF07C089810F90DF91CF911F910F9195
:100540000895F80100851185E5CF80913F01813044
:1005500019F0823019F0089583E001C084E080939F
:100560003F010895CF92DF92EF92FF920E946208BE
:100570006B017C010E946208DC01CB018C199D0992
:10058000AE09BF09883E9340A105B10598F3FF90DD
:10059000EF90DF90CF9008958F929F92AF92BF928D
:1005A000CF92DF92EF92FF920F931F93CF93DF933F
:1005B0006C015B017A0180910B01882309F456C01C
:1005C00080912E01882309F451C080912C0180FF75
:1005D00005C08091E00082608093E000E70110E0B8
:1005E0000AEF83E0882E9AE3992E2097B1F10E94BA
:1005F0003801811105C00150C9F10E94B202F5CF46
:10060000282F30E0C217D3070CF48C2F4FB7F89483
:100610008092E9009091E80095FF1DC0282F30E0FE
:10062000C21BD30BF501982F915020F0819180933C
:10063000F100FACFA20EB31E112319F09092E80038
:1006400009C08091E80085FD06C09092E80011E0A5
:10065000209709F010E04FBFC8CF1111C8CF5D98A7
:1006600084E680934F011E141F0444F081E090E063
:10067000F6019383828380E090E001C0C701DF919F
:10068000CF911F910F91FF90EF90DF90CF90BF908F
:10069000AF909F908F9008951F920F920FB60F9278
:1006A00011248F939F938091E1009091E100937FBB
:1006B0009093E10083FF0FC01092E90091E09093C6
:1006C000EB001092EC0092E39093ED0010922E015B
:1006D00098E09093F00082FF20C093E09093E900AF
:1006E0009091F200992319F09AE39093E800909189
:1006F0004F01992339F090914F01915090934F0100
:10070000992389F190912D01992339F090912D0130
:10071000915090932D01992341F184FF10C0809155
:10072000E2008E7E81608093E2008091E1008F7E06
:100730008093E10080912C018E7E806111C080FF4A
:1007400016C08091E2008E7E80618093E2008091ED
:10075000E1008E7E8093E10080912C018E7E81608D
:1007600080932C0104C05D9ACDCF289AD6CF9F915B
:100770008F910F900FBE0F901F9018951F920F92A0
:100780000FB60F921124CF92DF92EF92FF920F9348
:100790001F932F933F934F935F936F937F938F9309
:1007A0009F93AF93BF93EF93FF93CF93DF93CDB717
:1007B000DEB76C97DEBFCDBF1092E9008091E800F4
:1007C00083FFEDC168E0CE0145960E94550882EF97
:1007D0008093E8008D8987FF05C09091E80090FF25
:1007E000FCCF03C09EEF9093E800982F907609F01D
:1007F000C6C09E892F89188D91110CC0803829F4AC
:1008000080912B018093F10002C01092F1001092B0
:10081000F10048C1422F50E0512B913051F4811129
:1008200041C14130510509F03DC180912B018D7FBF
:100830000BC0933061F4811135C14130510509F08D
:1008400031C180912B01826080932B012BC19530A7
:1008500041F48091E80080FFFCCF20682093E30002
:1008600021C1963009F05FC0EB8CFC8C1092E9003E
:100870001092290110922801123091F5109227014F
:10088000109226010E94730299E0BE016F5F7F4FB4
:10089000DB01E92F1D92EA95E9F799831A8391E02C
:1008A0009E8390EA98879AEF99872091280130914A
:1008B0002901275F3F4F3C832B838D831092E900F2
:1008C0001092290110922801F0922701E09226014E
:1008D00049E050E080E00E944C020E947302E2C0B6
:1008E000F0922701E09226010E947401DC01129629
:1008F000ED90FC901397E114F10409F4C0C0D70106
:10090000ED91FC910480F581E02DBE016B5E7F4F7F
:10091000C7010995009719F00CF0C4C0C7C0F701D2
:10092000E084F184E8CF973009F4C0C0983021F416
:1009300081E08093F100B6C0993009F0B3C08370B4
:1009400009F0B4C0EDE0F1E081E021E036E3908110
:10095000992361F08093E9002093EB0091919093AB
:10096000EC003093ED008F5F873089F78EE780933E
:10097000EA001092EA008F8980932E0193C08B8D3C
:100980009C8D1092E90010922901109228019093F9
:10099000270180932601898D811156C08E899D89FA
:1009A000913A59F4813209F081C047E050E064E0A7
:1009B00071E080E00E944C0275C0913209F076C06F
:1009C000833289F4888D90E0982F88272F89822B95
:1009D000A0E0B0E08093000190930101A093020198
:1009E000B09303015FC0803269F48091E80082FF18
:1009F000FCCF67E084E091E00E9455088BEF809384
:100A0000E80006C0823209F04DC08F8980930B0147
:100A100080912A01882319F0EEEFFAE002C0E0E0AD
:100A2000F8E08091040190910501A0910601B09138
:100A30000701803B9440A105B10509F07BC080917E
:100A40000B0180FF93C076C00E947401DC011296F6
:100A50000D911C9113970115110541F1D801ED91EC
:100A6000FC910190F081E02DBE016B5E7F4FC801CB
:100A70000995811117C0F80100851185ECCF11305F
:100A800009F44EC0133091F48F89882309F445C0CE
:100A9000823081F440E860E18EE291E00E940F0232
:100AA000882321F08EEF8093E80079C081E2809363
:100AB000EB0075C0813029F440E86BE082E291E000
:100AC000EDCF833099F70E947401DC011296ED900E
:100AD000FC9013978E010F5F1F4F6801E114F10422
:100AE00079F0D701ED91FC910680F781E02DB801F6
:100AF000C7010995080F111DF701E084F184EECFBD
:100B0000D8011C92F60101900020E9F73197BF014E
:100B10006C197D0940E0C601C1CF6CE071E002C0F4
:100B200060E171E06115710509F2FB01449150E04B
:100B300080E840CF0FB6F894A89580916000886156
:100B400080936000109260000FBEA895EE3F2AE0EF
:100B5000F20739F08091FE0A9091FF0A9183808319
:100B6000A1CF1092FF0A1092FE0A9CCFEE3F8AE0BE
:100B7000F80731F0808191819093FF0A8093FE0AFB
:100B800087E797E7918380839BE088E10FB6F8942D
:100B9000A895809360000FBE9093600083CF6C9601
:100BA0000FB6F894DEBF0FBECDBFDF91CF91FF919E
:100BB000EF91BF91AF919F918F917F916F915F91D5
:100BC0004F913F912F911F910F91FF90EF90DF90E8
:100BD000CF900F900FBE0F901F90189590E0FC01E2
:100BE0003197EF30F105B0F5EA5AFF4F0C94E40B62
:100BF000809180008F7703C0809180008F7D8093EB
:100C00008000089580918000877FF9CF84B58F7729
:100C100002C084B58F7D84BD0895809190008F7748
:100C200007C0809190008F7D03C080919000877FE6
:100C30008093900008958091C0008F7703C08091C9
:100C4000C0008F7D8093C00008958091C200877F8F
:100C50008093C2000895CF93DF93282F30E0F901ED
:100C6000E955FE4F8491F901E857FE4FD491F901FF
:100C7000E759FE4FC491CC2391F081110E94EE05FB
:100C8000EC2FF0E0EE0FFF1FE55AFE4FA591B49157
:100C9000EC91ED2381E090E021F480E002C080E05F
:100CA00090E0DF91CF9108951F93CF93DF93282F8A
:100CB00030E0F901E955FE4F8491F901E857FE4F04
:100CC000D491F901E759FE4FC491CC23C9F0162FF6
:100CD00081110E94EE05EC2FF0E0EE0FFF1FE35BA9
:100CE000FE4FA591B4918FB7F894111105C09C9156
:100CF000ED2FE095E92302C0EC91ED2BEC938FBF33
:100D0000DF91CF911F910895CF93DF9390E0FC0185
:100D1000E857FE4F2491FC01E759FE4F8491882348
:100D200061F190E0880F991FFC01E15CFE4FC591D5
:100D3000D491FC01E35BFE4FA591B491611109C010
:100D40009FB7F8948881209582238883EC912E2385
:100D50000BC0623061F49FB7F8943881822F809580
:100D600083238883EC912E2B2C939FBF06C08FB7D3
:100D7000F894E8812E2B28838FBFDF91CF910895BF
:100D80002FB7F8946091C8017091C9018091CA0190
:100D90009091CB012FBF089560E00C94540660E061
:100DA0000C945406CF93DF93EC0161E088810E949C
:100DB000540661E089810E94540661E08A81DF91D6
:100DC000CF910C945406CF93DF93EC010E94D2068E
:100DD0008A81DF91CF910C94CC06CF93DF93EC0105
:100DE0000E94D2068881DF91CF910C94CF06CF92DA
:100DF000DF92EF92FF920F931F93CF93DF9300D078
:100E000000D000D0CDB7DEB769837A838B832C8383
:100E10003D834E838091BF0181110DC00E94C006A9
:100E20006093BB017093BC018093BD019093BE01A0
:100E300081E08093BF010E94C0060091BB01109128
:100E4000BC012091BD013091BE016B017C01C01A33
:100E5000D10AE20AF30A45EFC41641E0D406E104E0
:100E6000F10408F45CC06093BB017093BC018093F3
:100E7000BD019093BE011091BA01123069F170F476
:100E80001123A9F0113009F04AC08B810E94CC06D1
:100E90008E810E94CC061092BA0141C01430E1F15B
:100EA00088F11530E1F51092BA0181E039C0CE0128
:100EB00001960E94D206CE0104960E94D20680912D
:100EC000B901833020F01092B90182E026C08F5F13
:100ED0008093B90181E021C060E08A810E945406BC
:100EE00060E08D810E9454068091B801833020F02B
:100EF0001092B80183E011C08F5F8093B801109306
:100F0000BA010DC0CE0101960E94ED06CE010496F5
:100F10000E94ED0684E001C085E08093BA0180E084
:100F200026960FB6F894DEBF0FBECDBFDF91CF91EE
:100F30001F910F91FF90EF90DF90CF9008958091D7
:100F40003F018230B1F1C8F4813009F052C0E09124
:100F50003701F091380182810E94CC06E09139017D
:100F6000F0913A0180810E94CF06E0913B01F0911F
:100F70003C0182810E94CC0617C0833071F084301E
:100F8000C1F5E0913701F091380180810E94CF06D0
:100F9000E0913B01F0913C0129C0E0913901F091D1
:100FA0003A0180810E94CF06E0913D01F0913E011F
:100FB0001DC0E0913701F091380180810E94CF0679
:100FC000E0913901F0913A0182810E94CC06E091D2
:100FD0003B01F0913C0180810E94CF06E0913D01F0
:100FE000F0913E0182810E94CC0603C080810E9464
:100FF000CF06109244010895CF93DF93C7E3D1E069
:10100000888199810E94D2068A819B810E94D206A2
:101010008C819D810E94D2068E819F810E94D20682
:1010200081E08D87DF91CF910895089580914401EB
:10103000811102C00E94A5020E94C0066093330184
:101040007093340180933501909336010895409157
:101050002801509129012091260130912701421742
:101060005307B4F49091E8009570E1F39091E80093
:1010700092FD19C08093F10080912801909129017F
:1010800001968F739927892B19F48EEF8093E800CE
:1010900080912801909129010196909329018093D4
:1010A000280181E0089580E00895615030F020919A
:1010B000F100FC0120830196F8CF289884E6809304
:1010C0002D0108953FB7F8948091CC019091CD0106
:1010D000A091CE01B091CF0126B5A89B05C02F3FAE
:1010E00019F00196A11DB11D3FBFBA2FA92F982F4E
:1010F0008827820F911DA11DB11DBC01CD0142E0C9
:10110000660F771F881F991F4A95D1F708951F9280
:101110000F920FB60F9211242F933F938F939F93AB
:10112000AF93BF938091C8019091C901A091CA016A
:10113000B091CB013091C70123E0230F2D3720F46C
:101140000196A11DB11D05C026E8230F0296A11D21
:10115000B11D2093C7018093C8019093C901A0934A
:10116000CA01B093CB018091CC019091CD01A091A7
:10117000CE01B091CF010196A11DB11D8093CC018C
:101180009093CD01A093CE01B093CF01BF91AF91C9
:101190009F918F913F912F910F900FBE0F901F90B5
:1011A00018951F920F920FB60F9211240F900FBE39
:1011B0000F901F901895CF93DF9300D0CDB7DEB777
:1011C000FC01862F60834183228361E02A83498367
:1011D0000E94840661E04981842F0E94840661E0B8
:1011E0002A81822F0F900F90DF91CF910C9484066B
:1011F000ECE5F1E01382128288EE93E0A0E0B0E02B
:1012000084839583A683B78387E191E0918380836C
:101210008FEF9FEF95878487559A209AE5E4F1E058
:1012200081E0808380EF8183128213821482158291
:10123000178216821186108629E048E067E085EB68
:1012400091E00E94DB082FE04EE060E182EB91E04C
:101250000E94DB0824E143E162E18FEA91E00E9411
:10126000DB0826E045E064E08CEA91E00E94DB08C0
:10127000E7E3F1E085EB91E09183808382EB91E0FD
:10128000938382838FEA91E0958384838CEA91E053
:101290009783868310861186128613861486158698
:1012A000EFE2F1E011821082138212821482158221
:1012B000168217820895CF93DF931F92CDB7DEB7C2
:1012C000789484B5826084BD84B5816084BD85B521
:1012D000826085BD85B5816085BD80916E0081602D
:1012E00080936E00109281008091810082608093D3
:1012F00081008091810081608093810080918000D5
:101300008160809380008091910082608093910041
:101310008091910081608093910080919000816024
:10132000809390008091C10084608093C10080917F
:10133000C10082608093C1008091C1008160809370
:10134000C1008091C30081608093C3008091C00080
:1013500082608093C0008091C20081608093C2004F
:1013600080917A00846080937A0080917A00826014
:1013700080937A0080917A00816080937A008091D6
:101380007A00806880937A0010922E0110922B01CF
:1013900010922C018091D70081608093D70080EA61
:1013A0008093D80089B5806189BD89B5826089BD87
:1013B00009B400FEFDCF0E94B2028091D8008F7C5C
:1013C00080618093D8008091E000807F8093E0006E
:1013D0008091E1008E7E8093E1008DE08093E200B9
:1013E000559A209AEEEFFFE7859194918B3F9C4DA3
:1013F00019F481E080932A01289A5D9A809137013F
:10140000909138010E94D2068091390190913A0161
:101410000E94D20680913B0190913C010E94D2062D
:1014200080913D0190913E010E94D20686E198E0B4
:1014300090934C0180934B0185E198E090934E018D
:1014400080934D0162E0809145010E9484068CEFFB
:1014500097E09093300180932F018FE997E090936C
:1014600032018093310183B7877F83BF83B7846064
:1014700083BF83B78D7F83BF8DE88093640089E944
:10148000809365000E94C00660933301709334011D
:10149000809335019093360180E0A82E80E0B82E2D
:1014A00002E011E00E94C0066B017C0180914701BF
:1014B00090914801A0914901B0914A01A70196017C
:1014C000281B390B4A0B5B0B2630310541055105B2
:1014D00008F4B6C0809146018F7049F580914501AE
:1014E0000E942B0620914601892B11F0206101C03A
:1014F0002F7E2093460180914601807FE0914B0131
:10150000F0914C01309729F0803619F489830995C0
:101510008981E0914D01F0914E01309719F08039A9
:1015200009F4099580914601807F81607FC08130F8
:1015300049F5809145010E942B0620914601892B97
:1015400011F0206201C02F7D209346018091460159
:10155000807FE0914B01F0914C01309729F0803C65
:1015600019F4898309958981E0914D01F0914E012B
:10157000309719F0803309F4099580914601807FF6
:10158000826054C0823049F5809145010E942B064B
:1015900020914601892B11F0206401C02F7B2093FC
:1015A000460180914601807FE0914B01F0914C0112
:1015B000309729F0803919F4898309958981E09160
:1015C0004D01F0914E01309719F0803609F40995DC
:1015D00080914601807F836029C0833049F58091E6
:1015E00045010E942B0620914601892B11F02068AD
:1015F00001C02F772093460180914601807FE091C2
:101600004B01F0914C01309729F0803319F4898314
:1016100009958981E0914D01F0914E01309719F0C3
:10162000803C09F4099580914601807F80934601B2
:10163000C0924701D0924801E0924901F0924A01DC
:1016400080913F01833041F020F4813008F072C076
:101650004DC08430C9F14AC0E0913B01F0913C019A
:10166000208131814281E0913701F0913801608120
:10167000718182810E94F706882309F45BC0809102
:101680003701909138010E94ED06809139019091C7
:101690003A010E94E30680913B0190913C010E9437
:1016A000ED0680913D0190913E010E94E3060E946B
:1016B000C006609340017093410180934201909372
:1016C000430100933F0136C0E0913901F0913A01A6
:1016D000208131814281E0913D01F0913E016081A4
:1016E000718182810E94F706882321F18091370160
:1016F000909138010E94E3068091390190913A015E
:101700000E94ED0680913B0190913C010E94E3060E
:1017100080913D0190913E010E94ED060E94C0061D
:101720006093400170934101809342019093430183
:1017300010933F010E94C006C0904001D09041012B
:10174000E0904201F0904301DC01CB018C199D092E
:10175000AE09BF0981349F41A105B10510F00E9477
:10176000A5020E94C006C0903301D0903401E090E1
:101770003501F0903601DC01CB018C199D09AE09D1
:10178000BF0981399F45A140B105B8F0E0912F0113
:10179000F0913001309709F00995EB9A83B7816099
:1017A00083BF889583B78E7F83BFEB98E09131012B
:1017B000F0913201309709F00995A114B10409F4B0
:1017C00071CE0E9400006ECEEE0FFF1F0590F491C7
:1017D000E02D099481E090E0F8940C94EF0BF894DC
:0217E000FFCF39
:1017E200FFFFFFFF00E100000000000000C1808158
:1017F200000000000000008801CC02A9019E01EF58
:0618020001AD01CB010065
:00000001FF
