:100000000C94E4000C940C010C940C010C940C0165
:100010000C940C010C940C010C940C010C940C012C
:100020000C940C010C940C010C9439050C94AB0548
:100030000C940C010C940C010C940C010C940C010C
:100040000C940C010C940C010C940C010C940C01FC
:100050000C940C010C940C010C940C010C947B037B
:100060000C940C010C940C010C940C010C940C01DC
:100070000C940C010C940C010C940C010C940C01CC
:100080000C940C010C940C010C940C010C940C01BC
:100090000C940C010C940C010C940C010C940C01AC
:1000A0000C940C010C940C010C940C016601690178
:1000B00058015C0162018A018A018A016D017101A6
:1000C00075017B017F018A01850100000000240089
:1000D00027002A002D003000000000002500280025
:1000E0002B002E0031000000000023002600290014
:1000F0002C002F000404040404030405020202027D
:1001000004030202020206060606060604040202B0
:100110000204040408020110408040102040804086
:10012000800802040180402010020110801020404D
:1001300040200000000200090F0000030401000C31
:1001400000000000000000000000000000000000AF
:1001500000080B0002020201000904000001020273
:1001600000000524001001052401010104240206F9
:100170000524060001070581031000400904010061
:10018000020A000000070502024000000705830282
:100190004000000403090412010002EF0201404183
:1001A00023368000010102030141726475696E6F9C
:1001B000204C4C430041726475696E6F204C656F32
:1001C0006E6172646F008B0B11241FBECFEFDAE0FB
:1001D000DEBFCDBF22E0A8E5B1E001C01D92A33291
:1001E000B207E1F711E0A0E0B1E0E6E0F8E102C01B
:1001F00005900D92A835B107D9F710E0C4EED0E014
:1002000004C02197FE010E94F60BC33ED107C9F737
:100210000E9439080C94010C0C9400000895CF93AF
:10022000DF931F92CDB7DEB76983DC01ED91FC91BE
:100230000280F381E02D41E050E0BE016F5F7F4F0F
:1002400009950F90DF91CF91089583E08093E900A5
:100250008091F200882319F08AE38093E8000895E2
:10026000FC018485958597FD0BC09FB7F89482E0CB
:100270008093E9008091F2009FBF90E0019608957D
:100280009FB7F89482E08093E9008091F2009FBFCD
:1002900090E00895089580E090E0089590E0FC01DA
:1002A0003197EF30F105B0F5EA5AFF4F0C94F60B99
:1002B000809180008F7703C0809180008F7D809334
:1002C0008000089580918000877FF9CF84B58F7773
:1002D00002C084B58F7D84BD0895809190008F7792
:1002E00007C0809190008F7D03C080919000877F30
:1002F0008093900008958091C0008F7703C0809113
:10030000C0008F7D8093C00008958091C200877FD8
:100310008093C2000895CF93DF93282F30E0F90136
:10032000EE5CFE4F8491F901ED5EFE4FD491F90130
:10033000EC50FF4FC491CC2391F081110E944E01EB
:10034000EC2FF0E0EE0FFF1FEA51FF4FA591B491A3
:10035000EC91ED2381E090E021F480E002C080E0A8
:1003600090E0DF91CF9108951F93CF93DF93282FD3
:1003700030E0F901EE5CFE4F8491F901ED5EFE4F35
:10038000D491F901EC50FF4FC491CC23C9F0162F42
:1003900081110E944E01EC2FF0E0EE0FFF1FE8529A
:1003A000FF4FA591B4918FB7F894111105C09C919E
:1003B000ED2FE095E92302C0EC91ED2BEC938FBF7C
:1003C000DF91CF911F9108951F93CF93DF93E09119
:1003D0005901F0E0E45FFE4F61E080810E94B401CA
:1003E00010915801C12FD0E0FE01E45FFE4F60E0A4
:1003F00080810E94B40110935901CE0101966CE0F6
:1004000070E00E94E20B80935801DF91CF911F9121
:100410000895CF93DF9390E0FC01ED5EFE4F2491B1
:10042000FC01EC50FF4F8491882361F190E0880F2C
:10043000991FFC01E653FF4FC591D491FC01E8528E
:10044000FF4FA591B491611109C09FB7F8948881BD
:10045000209582238883EC912E230BC0623061F4B7
:100460009FB7F8943881822F809583238883EC91FD
:100470002E2B2C939FBF06C08FB7F894E8812E2BAC
:1004800028838FBFDF91CF9108953FB7F894809173
:100490005F0190916001A0916101B091620126B568
:1004A000A89B05C02F3F19F00196A11DB11D3FBFAC
:1004B000BA2FA92F982F8827820F911DA11DB11D3A
:1004C000BC01CD0142E0660F771F881F991F4A9536
:1004D000D1F708958F929F92AF92BF92CF92DF9201
:1004E000EF92FF926B017C010E9445024B015C017F
:1004F000C114D104E104F104F1F00E944502DC01D1
:10050000CB0188199909AA09BB09883E9340A10526
:10051000B10570F321E0C21AD108E108F10888EEB4
:10052000880E83E0981EA11CB11CC114D104E10403
:10053000F10419F7DDCFFF90EF90DF90CF90BF90DF
:10054000AF909F908F9008958F929F92AF92BF929D
:10055000CF92DF92EF92FF920F931F93CF93DF938F
:100560005C016B017A0180910B01882309F45BC067
:1005700080916F01882309F456C080916D0180FF3E
:1005800005C08091E00082608093E000E70110E008
:100590000AEF83E0882E9AE3992E2097D9F10E94E2
:1005A000280581110AC0015009F43DC061E070E0E6
:1005B00080E090E00E946A02F0CF282F30E0C2175E
:1005C000D3070CF48C2F4FB7F8948092E9009091E8
:1005D000E80095FF1DC0282F30E0C21BD30BF601A9
:1005E000982F915020F081918093F100FACFC20EA4
:1005F000D31E112319F09092E80009C08091E80001
:1006000085FD06C09092E80011E0209709F010E007
:100610004FBFC3CF1111C3CF5D9884E680936E01A5
:100620001E141F0444F081E090E0F501938382835F
:1006300080E090E001C0C701DF91CF911F910F9141
:10064000FF90EF90DF90CF90BF90AF909F908F90F2
:1006500008950E94280590E00895CF93DF931F929C
:10066000CDB7DEB7FC018485958597FD05C02FEFDA
:100670003FEF358724870BC0CE0101960E94FE0410
:10068000019719F4898190E002C08FEF9FEF0F90DE
:10069000DF91CF9108950F931F93CF93DF931F9214
:1006A000CDB7DEB78C01FC018485958597FF0EC020
:1006B000CE0101960E94FE04019719F4298130E0D1
:1006C00002C02FEF3FEFF80135872487F8018485BA
:1006D00095850F90DF91CF911F910F9108952FB7BE
:1006E000F89460915B0170915C0180915D01909143
:1006F0005E012FBF08951F920F920FB60F92112423
:100700002F933F938F939F93AF93BF9380915B0100
:1007100090915C01A0915D01B0915E0130915A0110
:1007200023E0230F2D3720F40196A11DB11D05C034
:1007300026E8230F0296A11DB11D20935A01809334
:100740005B0190935C01A0935D01B0935E01809189
:100750005F0190916001A0916101B09162010196E9
:10076000A11DB11D80935F0190936001A093610171
:10077000B0936201BF91AF919F918F913F912F9163
:100780000F900FBE0F901F90189580911A02811143
:100790000DC082E08093160284E0809317021092CD
:1007A00019021092180281E080931A0286E192E009
:1007B0000895409114025091150220911202309137
:1007C000130242175307B4F49091E8009570E1F3D7
:1007D0009091E80092FD19C08093F100809114027D
:1007E0009091150201968F739927892B19F48EEF3A
:1007F0008093E800809114029091150201969093E5
:1008000015028093140281E0089580E00895CF924C
:10081000DF92EF92FF920F931F93CF93DF931F927C
:10082000CDB7DEB7182F062FE42E862F880F8E5FE8
:1008300099830E94D90383E00E94D903F12EC12E2F
:100840009981D92E8C2D8F19801798F4F601E7FE27
:1008500002C0849101C080810E94D903182F80E0DA
:100860000E94D9038123FFEFCF1ADF0A8111EACF5B
:1008700001C081E00F90DF91CF911F910F91FF9008
:10088000EF90DF90CF900895DF92EF92FF920F9359
:100890001F93CF93DF93D82E8A017B01E40EF51EC0
:1008A000EB01CE15DF0571F0D7FE03C0FE01849188
:1008B00001C088810E94D90321968111F2CF8FEF68
:1008C0009FEF01C0C801DF91CF911F910F91FF9061
:1008D000EF90DF9008950F931F93CF93DF931F92B4
:1008E000CDB7DEB782E0898342E450E061E571E094
:1008F00080E80E9444040E94C503DC0112960D9119
:100900001C9113970115110569F0D801ED91FC9127
:100910000280F381E02DBE016F5F7F4FC801099512
:1009200097FF07C089810F90DF91CF911F910F91A1
:100930000895F80100851185E5CF615030F02091D0
:10094000F100FC0120830196F8CF289884E680937B
:1009500022020895CF92DF92EF92FF920F931F939E
:10096000CF93DF936C017A018B01C0E0D0E0CE150C
:10097000DF0589F0D8016D918D01D601ED91FC91D3
:100980000190F081E02DC6010995892B11F47E01BB
:1009900002C02196ECCFC701DF91CF911F910F913B
:1009A000FF90EF90DF90CF9008950E94FC0B8F9204
:1009B0009F92AF92BF92CF92DF92EF92FF926B0124
:1009C0007C010E946F034B015C01C60ED71EE81E1E
:1009D000F91E0E946F03681579058A059B0528F0AA
:1009E000C616D706E806F906A0F7FF90EF90DF904D
:1009F000CF90BF90AF909F908F900895FC01809111
:100A00006F01811103C08FEF9FEF08959FB7F89496
:100A100082E08093E9002091F20030E01216130684
:100A200014F421E030E02115310559F0289884E6CE
:100A3000809322028091F10080838091F2008823CC
:100A400019F09FBFC90108958BE68093E800F9CFA4
:100A50002FB7F89483E08093E9009091E800892F04
:100A6000807295FF04C09091F20080E4891B2FBF33
:100A700008951F920F920FB60F9211248F939F9398
:100A80008091E1009091E100937F9093E10083FFDA
:100A90000FC01092E90091E09093EB001092EC00EF
:100AA00092E39093ED0010926F0198E09093F00024
:100AB00082FF20C093E09093E9009091F200992387
:100AC00019F09AE39093E80090916E01992339F020
:100AD00090916E01915090936E01992389F19091BC
:100AE0002202992339F09091220291509093220290
:100AF000992341F184FF10C08091E2008E7E8160D5
:100B00008093E2008091E1008F7E8093E1008091EC
:100B10006D018E7E806111C080FF16C08091E20061
:100B20008E7E80618093E2008091E1008E7E8093D2
:100B3000E10080916D018E7E816080936D0104C023
:100B40005D9ACDCF289AD6CF9F918F910F900FBEEF
:100B50000F901F9018951F920F920FB60F921124AD
:100B6000CF92DF92EF92FF920F931F932F933F93B9
:100B70004F935F936F937F938F939F93AF93BF93A5
:100B8000EF93FF93CF93DF93CDB7DEB76C97DEBFC4
:100B9000CDBF1092E9008091E80083FFEDC168E0CD
:100BA000CE0145960E949D0482EF8093E8008D89D6
:100BB00087FF05C09091E80090FFFCCF03C09EEF37
:100BC0009093E800982F907609F0C6C09E892F89EF
:100BD000188D91110CC0803829F480916C0180939C
:100BE000F10002C01092F1001092F10048C1422FB2
:100BF00050E0512B913051F4811141C141305105E8
:100C000009F03DC180916C018D7F0BC0933061F480
:100C1000811135C14130510509F031C180916C011C
:100C2000826080936C012BC1953041F48091E80083
:100C300080FFFCCF20682093E30021C1963009F0AB
:100C40005FC0EB8CFC8C1092E900109215021092A0
:100C50001402123091F510921302109212020E94A7
:100C60006B0499E0BE016F5F7F4FDB01E92F1D929E
:100C7000EA95E9F799831A8391E09E8390EA988731
:100C80009AEF99872091140230911502275F3F4F08
:100C90003C832B838D831092E900109215021092F1
:100CA0001402F0921302E092120249E050E080E058
:100CB0000E9444040E946B04E2C0F0921302E0928E
:100CC00012020E94C503DC011296ED90FC9013976E
:100CD000E114F10409F4C0C0D701ED91FC91048046
:100CE000F581E02DBE016B5E7F4FC701099500972E
:100CF00019F00CF0C4C0C7C0F701E084F184E8CF5C
:100D0000973009F4C0C0983021F481E08093F1005D
:100D1000B6C0993009F0B3C0837009F0B4C0E9E1FE
:100D2000F1E081E021E036E39081992361F0809346
:100D3000E9002093EB0091919093EC003093ED004B
:100D40008F5F873089F78EE78093EA001092EA0080
:100D50008F8980936F0193C08B8D9C8D1092E900D9
:100D600010921502109214029093130280931202B3
:100D7000898D811156C08E899D89913A59F48132AD
:100D800009F081C047E050E064E071E080E00E943B
:100D9000440475C0913209F076C0833289F4888D9D
:100DA00090E0982F88272F89822BA0E0B0E08093D5
:100DB000000190930101A0930201B09303015FC071
:100DC000803269F48091E80082FFFCCF67E084E024
:100DD00091E00E949D048BEF8093E80006C0823270
:100DE00009F04DC08F8980930B0180916B0188239E
:100DF00019F0EEEFFAE002C0E0E0F8E080910401C3
:100E000090910501A0910601B0910701803B9440AB
:100E1000A105B10509F07BC080910B0180FF93C053
:100E200076C00E94C503DC0112960D911C911397A8
:100E30000115110541F1D801ED91FC910190F0816E
:100E4000E02DBE016B5E7F4FC8010995811117C06F
:100E5000F80100851185ECCF113009F44EC0133034
:100E600091F48F89882309F445C0823081F440E8E9
:100E700060E185EB91E00E940704882321F08EEF6A
:100E80008093E80079C081E28093EB0075C08130E7
:100E900029F440E86BE089EA91E0EDCF833099F7DF
:100EA0000E94C503DC011296ED90FC9013978E0111
:100EB0000F5F1F4F6801E114F10479F0D701ED9144
:100EC000FC910680F781E02DB801C7010995080F54
:100ED000111DF701E084F184EECFD8011C92F601D8
:100EE00001900020E9F73197BF016C197D0940E0BE
:100EF000C601C1CF63E971E002C067E971E0611525
:100F0000710509F2FB01449150E080E840CF0FB633
:100F1000F894A89580916000886180936000109299
:100F200060000FBEA895EE3F2AE0F20739F08091ED
:100F3000FE0A9091FF0A91838083A1CF1092FF0A4D
:100F40001092FE0A9CCFEE3F8AE0F80731F08081D4
:100F500091819093FF0A8093FE0A87E797E7918338
:100F600080839BE088E10FB6F894A8958093600099
:100F70000FBE9093600083CF6C960FB6F894DEBFDF
:100F80000FBECDBFDF91CF91FF91EF91BF91AF9198
:100F90009F918F917F916F915F914F913F912F9191
:100FA0001F910F91FF90EF90DF90CF900F900FBEA9
:100FB0000F901F9018956115710579F0FB01019054
:100FC0000020E9F73197AF01461B570BDC01ED918B
:100FD000FC910280F381E02D099480E090E0089577
:100FE0004F925F926F927F92EF92FF920F931F93B7
:100FF000CF93DF93CDB7DEB7A1970FB6F894DEBFDE
:101000000FBECDBF7C01FA01CB0119A2223008F43A
:101010002AE08E010F5D1F4F422E512C612C712C46
:10102000BF01A30192010E94C00BF901CA01015046
:1010300011096A3014F4605D01C0695CD8016C93D9
:10104000232B242B252B61F7B801C7010E94DB0756
:10105000A1960FB6F894DEBF0FBECDBFDF91CF9142
:101060001F910F91FF90EF907F906F905F904F9046
:101070000895789484B5826084BD84B5816084BD10
:1010800085B5826085BD85B5816085BD80916E0026
:10109000816080936E001092810080918100826057
:1010A0008093810080918100816080938100809194
:1010B00080008160809380008091910082608093A5
:1010C00091008091910081608093910080919000C7
:1010D0008160809390008091C10084608093C10002
:1010E0008091C10082608093C1008091C1008160C5
:1010F0008093C1008091C30081608093C300809180
:10110000C00082608093C0008091C20081608093A3
:10111000C20080917A00846080937A0080917A0086
:10112000826080937A0080917A00816080937A0057
:1011300080917A00806880937A0010926F011092FB
:101140006C0110926D018091D70081608093D7006F
:1011500080EA8093D80089B5806189BD89B58260B5
:1011600089BD09B400FEFDCF61E070E080E090E051
:101170000E946A028091D8008F7C80618093D800A1
:101180008091E000807F8093E0008091E1008E7E7E
:101190008093E1008DE08093E200559A209AEEEF73
:1011A000FFE7859194918B3F9C4D19F481E08093EA
:1011B0006B01109204021092050210920602109226
:1011C00007021092C2011092C3011092C401109242
:1011D000C50168EB7BE080E090E00E94D70480E7E7
:1011E00091E09093030280930202CBE1D0E0109152
:1011F0000B016AE070E080E090E00E946A02111149
:1012000009C0219739F064E670E080E090E00E9428
:101210006A02EDCFE0910202F09103028FEF9FEF9F
:10122000958784870E946F036093C2017093C30106
:101230008093C4019093C50161E371E08091020243
:10124000909103020E94DB076AE070E080E090E08A
:101250000E94D70481E08093D60161E084E00E947F
:10126000090261E085E00E94090261E086E00E94D7
:10127000090261E087E00E94090261E088E00E94C3
:10128000090261E089E00E94090261E080E10E94B8
:10129000090261E08EE00E94090261E08FE00E9495
:1012A000090261E082E10E94090261E083E10E949B
:1012B000090261E084E10E94090261E084E00E9489
:1012C000B40161E085E00E94B40161E086E00E9423
:1012D000B40161E087E00E94B40161E088E00E940F
:1012E000B40161E089E00E94B40161E080E10E9404
:1012F000B40161E08EE00E94B40161E08FE00E94E1
:10130000B40161E082E10E94B40161E083E10E94E6
:10131000B40161E084E10E94B40184EE91E0909315
:101320000F0280930E028EE091E090931102809361
:10133000100262E0809108020E940902C0E0D0E041
:1013400084EF882E99249394A12CB12C0E946F03D2
:10135000672B682B692B41F40E946F036230710583
:101360008105910508F40BC10E946F03609367012A
:10137000709368018093690190936A01C090630142
:10138000D0906401E0906501F09066016C157D05D8
:101390008E059F0540F46093630170936401809310
:1013A000650190936601C0906301D0906401E09064
:1013B0006501F09066019B01AC012C193D094E09B5
:1013C0005F0969017A013AEFC316D104E104F1041F
:1013D00008F4D5C060936301709364018093650144
:1013E000909366018092CE019092CF01A092D0019D
:1013F000B092D1011092D2011092D3011092D40177
:101400001092D5018091C6019091C701A091C801A9
:10141000B091C9018093CA019093CB01A093CC01F4
:10142000B093CD010E946F036093C6017093C70112
:101430008093C8019093C9010E946F036093C20119
:101440007093C3018093C4019093C5010E946F0300
:101450006B017C0163E471E08091020290910302D0
:101460000E94DB072AE041E050E060E070E08091FC
:101470000202909103020E94F0076AE471E08091F9
:101480000202909103020E94DB072AE0B701A60145
:1014900080910202909103020E94F0076CE471E0D7
:1014A00080910202909103020E94DB078091C601A5
:1014B0009091C701A091C801B091C901B701A601DF
:1014C000481B590B6A0B7B0B2AE08091020290911A
:1014D00003020E94F0076CE471E080910202909197
:1014E00003020E94DB074091C6015091C701609141
:1014F000C8017091C9018091CA019091CB01A0915E
:10150000CC01B091CD01481B590B6A0B7B0B2AE033
:1015100080910202909103020E94F0076EE471E054
:1015200080910202909103020E94DB070E946F03E8
:10153000AB01BC012AE080910202909103020E945B
:10154000F007E0900202F090030260E571E0C7014D
:101550000E94DB0760E471E0C7010E94DB0762E0E4
:1015600070E080E090E00E94D7040E946F036093D7
:10157000C6017093C7018093C8019093C9010E946E
:101580006F036B017C0180910A0290910B02A09184
:101590000C02B0910D02A7019601281B390B4A0BD2
:1015A0005B0B263031054105510508F4AEC0809132
:1015B00009028F7039F5809108020E948B012091F9
:1015C0000902892B11F0206101C02F7E20930902AE
:1015D00010910902107FE0910E02F0910F023097F6
:1015E00019F0103609F40995E0911002F0911102FA
:1015F000309719F0103909F4099580910902807F1C
:10160000816079C0813039F5809108020E948B0198
:1016100020910902892B11F0206201C02F7D2093B7
:10162000090210910902107FE0910E02F0910F0261
:10163000309719F0103C09F40995E0911002F091EF
:101640001102309719F0103309F4099580910902BD
:10165000807F826050C0823039F5809108020E94FC
:101660008B0120910902892B11F0206401C02F7B8E
:101670002093090210910902107FE0910E02F0916F
:101680000F02309719F0103909F40995E091100212
:10169000F0911102309719F0103609F409958091F4
:1016A0000902807F836027C0833039F5809108026A
:1016B0000E948B0120910902892B11F0206801C042
:1016C0002F772093090210910902107FE0910E02FA
:1016D000F0910F02309719F0103309F40995E09159
:1016E0001002F0911102309719F0103C09F409959D
:1016F00080910902807F80930902C0920A02D092F1
:101700000B02E0920C02F0920D02209709F41ECE1B
:101710000E9400001BCEE0E7F1E01382128288EE07
:1017200093E0A0E0B0E084839583A683B78383E24F
:1017300091E0918380838FEF9FEF95878487E0EC22
:10174000F1E016821782108611861286138614869F
:10175000158616861786108A118A128A138A148AA9
:10176000158AE8E0F2E081E0808380EF81831282D5
:1017700013821482158217821682118610860895AC
:10178000A1E21A2EAA1BBB1BFD010DC0AA1FBB1F85
:10179000EE1FFF1FA217B307E407F50720F0A21BF7
:1017A000B30BE40BF50B661F771F881F991F1A9464
:1017B00069F760957095809590959B01AC01BD018E
:1017C000CF010895AA1BBB1B51E107C0AA1FBB1F75
:1017D000A617B70710F0A61BB70B881F991F5A95BD
:1017E000A9F780959095BC01CD010895EE0FFF1FDC
:1017F0000590F491E02D099481E090E0F8940C9428
:06180000010CF894FFCF7B
:10180600FFFFFFFF00E100000000000004050607DF
:101816000809100E0F12131400C180810000000089
:101826000000000F01A4022903250130012D034BFE
:1018360003564D4450565F317C315F564D445056E9
:101846000D0A00564D4450455F003A323A007C007E
:081856005F564D4450450000AF
:00000001FF
